:100000000C9465120C9482120C9482120C9482123D
:100010000C9482120C9482120C9482120C94821210
:100020000C9482120C947A230C9482120C948212F7
:100030000C9482120C9482120C9482120C948212F0
:100040000C9482120C9482120C9482120C948212E0
:100050000C9482120C9482120C9482120C948212D0
:100060000C9482120C9482120C9482120C948212C0
:10007000110A0611060A050A0609060A050A0609F2
:10008000060A090A06050A06050A0605060A052AD9
:1000900026052A26092A26090A0600000000000073
:1000A000000000110A06000000100000C01100004E
:1000B000201200002010000020100000201000007E
:1000C00020120000C011000000100000000878009D
:1000D0000004880006028800060178008600880077
:1000E0004600880026007800160000000E00000080
:1000F0000600FCFF07000000060000000E000000E4
:1001000016000000260200004603000086030000DF
:10011000C6030000E6030000000400000008000021
:10012000E01300002010000020100000E01100008B
:100130002010000020100000E0130000001000005C
:100140000000000000100000E0130000201000007C
:1001500020100000E011000020100000201000001E
:10016000E013000000100000000878004004880040
:10017000C6028800C6017800C6038800C60788004A
:1001800026007800160000000E0000000600FCFFAC
:1001900007000000060000000E000000160000002E
:1001A0002600000046000000860000000601000056
:1001B000060200000004000000080000C01100005A
:1001C000201200002010000020100000201000006D
:1001D00020120000C011000000100000000000000C
:1001E00000100000E01000002011000020120000AC
:1001F000201200002012000020110036E01000360E
:1002000000100036001000F6FF1F00360004003614
:100210000004003600040006000400060004003656
:1002200004040036863F0036070400F63F0E003611
:10023000271F0036A63F383624044406200404064F
:10024000200464362004443620044436200438F662
:10025000FF1F0036001000360010FE37C0110000EE
:100260002012000020100000C01100000012000049
:1002700020120000C011000000000000001000006B
:10028000C01100002012000020100000C01100006A
:10029000001200002012FE37C01100360010003698
:1002A000001038F6FF1F443620040436200464365C
:1002B0002004440620044406200438362104003675
:1002C000A33F0036270400F63F0E0036071F003616
:1002D000833F0036010400060004000600040036D7
:1002E0000004003600040036000400F6FF1F00364C
:1002F0000010003600100036E01000002011000051
:100300002012000020120000201200002011000026
:10031000E01000000000000000100000E0100000ED
:100320002011000020120000201200002012000006
:1003300020110036E010003600100036001000F6E4
:10034000FF1F0036000400360004003600040036AB
:10035000000400360004003604040036863F0036F0
:10036000070400F63F0E0036271F0036A63F38363A
:100370002404443620040436200464362004443621
:1003800020044436200438F6FF1F003600100036E3
:100390000010FE37C01100002012000020100000E5
:1003A000C01100000012000020120000C011000067
:1003B0000000000000100000C0110000201200002A
:1003C00020100000C0110000001200002012FE37B3
:1003D000C011003600100036001038F6FF1F4436FA
:1003E00020040436200464362004443620044436B5
:1003F0002004383621040036A33F0036270400F6D7
:100400003F0E0036071F0036833F003601040036DA
:1004100000040036000400360004003600040036F4
:10042000000400F6FF1F00360010003600100036F2
:10043000E010000020110000201200002012000037
:100440002012000020110000E01000000000000059
:1004500000103800C0114400201204002010640075
:10046000C011440000124400201238C2C01100C65E
:10047000001000CE0010FEFFFF1F00CE000000C6DF
:10048000000000C2000000C0000000C0000000C06A
:10049000000000C0000000C0000000C0000000C05C
:1004A000000000C0000000C0000000C0000000C04C
:1004B000000000C0000000C0000000C0FF1F00C01E
:1004C000001000C0001000C0E0100000201100006B
:1004D0002012000020120000201200002011000055
:1004E000E0100000001000000000000000100000FC
:1004F000E010000020110000201200002012000077
:1005000020120000201100C0E01000C0001000C048
:10051000001000C0FF1F00C0000000C0000000C0AD
:10052000000000C0000000C0000000C0000000C0CB
:10053000000038C0000044C0000004C0000064C0D7
:10054000000044C0000044C0000038C8000000CCD7
:10055000000000CE0000FEFFFF1F00CE001000CC08
:10056000001000C8C0110000201200002010000080
:10057000C01100000012000020120000C011000095
:1005800000100000000000000E100000111000001C
:100590000110000001100000011000001111000006
:1005A0000E0B000000070000000F00800D1F0080F0
:1005B0008D0000807D0000800D0000800D00008017
:1005C00001000080010000800D0000800D003880D7
:1005D0003D0044804D0004808D0064800100448013
:1005E000010044800D0038800D0000807D040080F3
:1005F0008D06FEFF0D07000080070000C007000009
:100600001F08000001100000011000000F10000082
:1006100001100000011000001F1000000010000079
:10062000000038001F104400011004000110640095
:100630000F10440001104400011138001F0B00008E
:1006400000070000000FFEFF0D1F00808D000080DE
:100650007D0000800D0000800D0000800100008002
:10066000010000800D0000800D0000803D00008032
:100670004D0000808D00008001000080010000809E
:100680000D0000800D0000807D0400808D0600803C
:100690000D07000080070000C00700000E080000E2
:1006A00011100000011000000110000001100000F6
:1006B000111000000E1000000010000000000000EB
:1006C00010000000100700009008000090080000D3
:1006D000900F0000900800009008000090080000B3
:1006E00010000000100000001000000010000000CA
:1006F000100000FCFF7F00F8FF3F00F0FF1F00E04C
:10070000FF0F00C0FF070080FF030000FF01000093
:10071000FE0000007C00380038004400100004FC9B
:10072000FF7F64FCFF7F4400180044001400380081
:1007300012000000110000801007FE7F90080000EA
:100740009000000090000000900000009008000061
:100750001007000010000000000000001000008ED4
:1007600011000051120000111200001F1100009131
:1007700010000051100000D1130000001000000014
:100780001000000010000000100000FFFF3F00FC00
:100790001F0200FC1F0700F80F0700F88F0F00F082
:1007A000870F00F0C71F00E0C31F00E0E33F00C059
:1007B000E13F38C0F17F4480F07F04FCFFFF64809C
:1007C00010004440100044201000381010000008B1
:1007D000100000041047FE039068000090480000DD
:1007E000904F0000904800009048000090E8000002
:1007F00010000000000000001000000010070000C2
:100800009008000090080000900FFE1F9008002044
:100810009008004090083880100044001100040047
:100820001200640014004400180044FCFF7F38F8F4
:10083000FF3F00F0FF1F00E0FF0F00C0FF07008038
:10084000FF030000FF010000FE0000007C0000002C
:1008500038000000100000FCFF7F00FCFF7F00005C
:100860001000000010000000100000001000000048
:1008700010070000900800009000000090000000A9
:100880009000000090080000100700001000000019
:1008900000000000001000008F1100005112000045
:1008A000111200000F11000091101E0051102000C5
:1008B000CF134000001080C8001000CD00103ECEC5
:1008C000FF1F02CF000082CF00001ED0000002E018
:1008D000000002C000003EC0000000C0000000C0D8
:1008E000000000C0000000C0000000C0000000C008
:1008F000000000C0000000C0000000C0FF1F00C0DA
:10090000001000C000100000001000001E110000C8
:10091000A2110000221100001E110000221100008F
:10092000221100009E1300000010000000000000D3
:100930000000000000000000000000FE010080FF39
:100940000700C0FF0F00E0FF1F00F0013E00F0FCB9
:100950003C0078027800780178017801780178010C
:1009600078010000780100003C010000BE0000009A
:100970009F0000804F0000C0270000E0130000F03F
:10098000090000F80400007C0200007C0100007CEB
:100990000100007C01000000010000F801000000DF
:1009A00000000000000000380000007C0000007C17
:1009B0000100007C01000038010000800000007888
:1009C0000000000000000000000000001000000017
:1009D00090080000900400009002000090010000C8
:1009E0009002000090040000900800001000000435
:1009F0001000000410000004100000FCFF7F00FC49
:100A0000FF7F000010400000384000007C400000E4
:100A1000FE000000FF010080FF0300C0FF0700E0B0
:100A2000FF0F00F0FF1F00F8FF3F00FCFF7F0000FA
:100A30001000000010000000100000001000000076
:100A4000100700009008000090080000900F0000C0
:100A500090080000900800009008000010000000BE
:100A60000000000000000000000000000000000086
:100A70000100000001000000010000000100000072
:100A80000100000001000000010000000100000062
:100A900001000000010080FFFF0180FFFF01000056
:100AA000000000000000F0FFFF0FF0FFFF0FF0FF5D
:100AB000FF0FF0FFFF0FF0FFFF0FF0FFFF0FF0FF42
:100AC000FF0F000000000000000080FFFF0180FF1A
:100AD000FF01000001000000010000000100000013
:100AE0000100000001000000010000000100000002
:100AF00001000000010000000100000000000000F3
:100B0000000000008010000080100000E0130000D2
:100B10008010000080100000001000C07F10004016
:100B20004010007CC01F0044401038C47F104804AF
:100B300000108804001088E47F1088E47F1048E4E7
:100B4000FF1F38E47F0000E47F0000E47F00FCFF2B
:100B50007F0000E07F0000E07F0000E07F0000E019
:100B6000FF1F00E07F1000E07F1000000010000079
:100B70000010000000100000001000000010000035
:100B80000010000000100000001000000010000025
:100B900000100000E0130000001000000000FF0142
:100BA0000203040506076F70717273747576FFFF98
:100BB000FFFFFFFFFFFFFFFFFFFFFFFFFFFF101122
:100BC00012131415161718191A1B1C1D1E1F20218D
:100BD00022232425262728292A2B2C2D2E2F30317D
:100BE00032333435363738393A3B3C3D3E3F40416D
:100BF00042434445464748494A4B4C4D4E4F50515D
:100C000052535455565758595A5B5C5D5E5F60614C
:100C100062636465666768696A6B6C6D6EFFFFFF8F
:100C2000FFFFFFFFFFFFFFFFFFFFFFFFFFFFFFFFD4
:100C3000FFFFFFFFFFFFFFFFFFFFFFFFFFFFFFFFC4
:100C4000FFFFFFFFFFFFFFFFFFFFFFFFFFFF0FFFA4
:100C5000FFFFFF05FFFFFFFFFFFFFFFFFFFFFFFF9E
:100C6000FFFF08FFFFFFFFFFFFFFFFFFFFFFFFFF8B
:100C7000FFFFFFFF09FFFFFFFFFF0AFFFF0BFFFF63
:100C8000FFFF0CFFFFFFFFFFFFFFFFFFFFFFFFFF67
:100C9000FFFFFFFF0DFFFFFFFFFF0EFFFFFF000045
:100CA0000000000000000000000000000000000044
:100CB0000000000000000000000000000000000034
:100CC0000000000000000000000000000000000024
:100CD000000000000000000004700C701C703C70EC
:100CE0007C70FC70FC71FC73FC77FFFFFFFFFC77EE
:100CF000FC73FC71FC707C703C701C700C70047098
:100D00000000000000000000000000000E200E3077
:100D10000E380E3C0E3E0E3F8E3FCE3FEE3FFFFFA5
:100D2000FFFFEE3FCE3F8E3F0E3F0E3E0E3C0E3895
:100D30000E300E2000000000000000000000000047
:100D40003C3C3C3C3C3C3C3C3C3C3C3C3C3C3C3CE3
:100D50003C3C3FFC3FFC3C3C3C3C3C3C3C3C3C3C4D
:100D60003C3C3C3C3C3C3C3C0000000000000000A3
:100D700000000000C007E00F301818300C600C6055
:100D800006C006C006C006C00C600C6018303018E3
:100D9000600C628C7EFC7EFC000000000000000005
:100DA0000000000000000000000000000000000043
:100DB0001C381C381C381C381C381C381C381C3893
:100DC0001C381C383C3C7C3EFC3BDC7B1C001C0083
:100DD0001C001C001C0000000000000000000000BF
:100DE000FEFFFEFF060006000600060006000700E4
:100DF000070006000600060006000600FEFFFEFFD4
:100E000000000000000000000000000000000000E2
:100E100000000000FF7FFF7F006000600060006056
:100E2000006000E000E000600060006000600060C2
:100E3000FF7FFF7F00000000000000000000300C7A
:100E4000300C000000000000C001C003E003600798
:100E500060077006300E380E381C181CFC3FFC3F33
:100E60000E380E700E7007E0000000000000000059
:100E70000000300C300C000000000000E007F00F14
:100E8000381C1C381C380E700E700E700E700E70F0
:100E90000E701C381C38381CF00FE00700000000F2
:100EA0000000000000006018601800000000000052
:100EB0001C701C701C701C701C701C701C701C70D2
:100EC0001C701C701C701C703C783838F01FE00FD0
:100ED000000000000000000000000000F003F80720
:100EE0003C0E1C0E1C0E1C061C079C039C039C0342
:100EF0009C071C0F1C1E1C3C1C781C701C709C70DA
:100F00009C3F1C1F000000000000000000000000CB
:100F100000000000600C600C00000000E007F80F0B
:100F2000181E001C001CE01FF01F381C1C1C1C1C81
:100F30001C1C3C1EF87BF078000000000000000044
:100F40000000000000000000300630060000000035
:100F5000E003F80F3C1E1C1C0E380E380E380E38FD
:100F60000E380E381C1C3C1EF80FE0030000000079
:100F70000000000000000000000000003006300605
:100F8000000000001C381C381C381C381C381C3869
:100F90001C381C381C381C381C3C3C3EF83BF038D4
:100FA00000000000000000000000000000008003BE
:100FB000C007600C600C600CC007800300000000DC
:100FC0000000000000000000000000000000000021
:100FD0000000000000000000000000000000000011
:100FE0000000000000000000000000000000000001
:100FF00000000000000000000000000000000000F1
:1010000000000000000000000000000000000000E0
:101010000000000000008003800380038003800341
:1010200080038003800380038003800380038003A8
:1010300080030000000080038003800300000000A4
:101040000000000000000000380E380E380E380E88
:10105000380E100410040000000000000000000022
:101060000000000000000000000000000000000080
:1010700000000000000000000000000000008031BF
:101080008031C018C018C018C018FC7FFC7F600CED
:1010900060063006FE3FFE3F1803180318031803CE
:1010A0008C018C0100000000000000000000000323
:1010B0000003C01FF03F7023380338033803780360
:1010C000F003E0038007001F001F003B003B003BD4
:1010D000003B181BF81FE00F000300030000000096
:1010E0000000000000003CC06660C330C318C31895
:1010F000C30CC30666033C038001C03CC06660C3EA
:1011000030C318C318C30CC30666033C00000000BC
:1011100000000000000000000000E003F007380EAF
:10112000380E380E38067007F001F800FCE0CEE10A
:10113000C7E387630767077E0F3E1E3CFC7FF0F323
:10114000000000000000000000000000C001C0011D
:10115000C001C001C001800080000000000000004C
:10116000000000000000000000000000000000007F
:10117000000000000000000000000000000000006F
:101180000018001E000F8003C001E000E000E00036
:1011900070007000700070007000700070007000CF
:1011A000E000E000E000C0018003000F001E001816
:1011B000000000000C003C007800E000C00180034B
:1011C00080038003000700070007000700070007EF
:1011D00000070007800380038003C001E00078005F
:1011E0003C000C000000000000008003800380032E
:1011F000981B7C3E300C4002E007700E381C200427
:1012000000000000000000000000000000000000DE
:1012100000000000000000000000000000000000CE
:1012200000000000000000008001800180018001BA
:1012300080018001FE7FFE7F8001800180018001AE
:10124000800180010000000000000000000000009C
:10125000000000000000000000000000000000008E
:10126000000000000000000000000000000000007E
:10127000C003C003C003C003000380038001C0009B
:10128000000000000000000000000000000000005E
:1012900000000000000000000000F81FF81F000020
:1012A000000000000000000000000000000000003E
:1012B000000000000000000000000000000000002E
:1012C000000000000000000000000000000000001E
:1012D0000000000000000000C003C003C003C00302
:1012E000000000000000000000000000006000306E
:1012F000003000180018000C000C00060006000367
:10130000000380018001C000C00060006000300068
:101310003000180018000C000C000600000000004F
:101320000000E003F007380E1C1C1C1C0E380E38A1
:101330000E380E380E380E380E380E380E381C1C8B
:101340001C1C380EF007E003000000000000000045
:101350000000000000000003E003FC038C03800396
:101360008003800380038003800380038003800365
:101370008003800380038003FC7FFC7F000000006B
:1013800000000000000000000000F003FC070C0E4D
:10139000001C001C001C001C000E000E0007800337
:1013A000C001E0007000300038001C00FC1FFC1F72
:1013B0000000000000000000000000000000F0033A
:1013C000F80F081E001C001C001C000C0006E003A7
:1013D000E007000F001E001C001C001C001E080F70
:1013E000F807F80300000000000000000000000003
:1013F0000000000E000F800F800FC00EE00E600E88
:10140000300E180E180E0C0E060EFE7FFE7F000E1C
:10141000000E000E000E000E000000000000000094
:10142000000000000000F03FF03FF03F30003000CF
:10143000300030003000F003F00F001E003C003898
:1014400000380038003C101EF00FF00300000000D0
:1014500000000000000000000000801FE03FF020BE
:101460007000380038001C009C0FDC1F7C3C3C786E
:101470001C701C701C70387038387038F01FC00732
:101480000000000000000000000000000000F83F25
:10149000F83FF83F00180018000C000C000600028E
:1014A000000380018001C000C00060006000700087
:1014B00030003000000000000000000000000000CC
:1014C0000000C007F00F781E381C381C381C780C40
:1014D000F00FE003F00F381F181E1C3C1C381C389E
:1014E0001C38381CF00FE00700000000000000006E
:1014F000000000000000C007F01F381C38381C38FE
:101500001C701C701C703C78787CF077E073007065
:1015100000380038001C081EF80FF003000000001F
:1015200000000000000000000000000000000000BB
:1015300000000000C003C003C003C003000000009F
:101540000000000000000000C003C003C003C0038F
:10155000000000000000000000000000000000008B
:101560000000000000000000C003C003C003C0036F
:10157000000000000000000000000000C003C003E5
:10158000C003C003000380038001C000000000000E
:10159000000000000000000000000000004000709B
:1015A000003C000FC003F0003C003C00F000C00312
:1015B000000F003C00700040000000000000000030
:1015C000000000000000000000000000000000001B
:1015D000000000000000FE7FFE7F00000000000011
:1015E000FE7FFE7F00000000000000000000000001
:1015F00000000000000000000000000000000000EB
:101600000000000002000E003C00F000C003000FCC
:10161000003C003C000FC003F0003C000E00020044
:101620000000000000000000000000000000F807BB
:10163000FC1F0C3C0C3800380038001C001E000F4A
:1016400080078003C001C001C00100000000C0018C
:10165000C001C00100000000000000000000000008
:101660000000C00FE01F703818301C3E0C318E3166
:10167000C630C630C638C638C63CC6348EF78CF382
:101680001C003808F00FC007000000000000000038
:10169000000000000000000000000000C001C003C6
:1016A000E003600760077006300E380E381C181C07
:1016B000FC3FFC3F0E380E700E7007E0000000008B
:1016C000000000000000000000000000000000001A
:1016D000FC07FC0F1C1E1C1C1C1C1C0EFC07FC0722
:1016E0001C1E1C3C1C381C381C381C3CFC1FFC07F6
:1016F00000000000000000000000000000000000EA
:1017000000000000C01FF03F78303C001C000E00BD
:101710000E000E000E000E000E001C003C00782093
:10172000F03FC01F000000000000000000000000AB
:101730000000000000000000FC07FC0F1C3C1C38EF
:101740001C781C701C701C701C701C701C701C3869
:101750001C381C1EFC0FFC030000000000000000F1
:10176000000000000000000000000000F83FF83F0B
:1017700038003800380038003800F81FF81F3800EB
:101780003800380038003800F87FF87F000000008B
:101790000000000000000000000000000000000049
:1017A000F87FF87F38003800380038003800F83FFC
:1017B000F83F38003800380038003800380038006A
:1017C0000000000000000000000000000000000019
:1017D00000000000C01FF03F78303C001C000E00ED
:1017E0000E000E000E3F0E3F0E381C383C38783885
:1017F000F03FC01F000000000000000000000000DB
:1018000000000000000000001C381C381C381C3888
:101810001C381C381C38FC3FFC3F1C381C381C385A
:101820001C381C381C381C38000000000000000068
:10183000000000000000000000000000FC1FFC1F72
:10184000C001C001C001C001C001C001C001C00190
:10185000C001C001C001C001FC1FFC1F000000004E
:101860000000000000000000000000000000000078
:10187000F80FF80F000E000E000E000E000E000E06
:10188000000E000E000E000E000E0407FC03FC010B
:101890000000000000000000000000000000000048
:1018A000000000001C781C3C1C1E1C0F1C079C0325
:1018B000DC01FC00DC01DC039C071C0F1C1E1C3C33
:1018C0001C781CF800000000000000000000000070
:1018D0000000000000000000380038003800380028
:1018E0003800380038003800380038003800380038
:1018F00038003800F83FF83F00000000000000000A
:101900000000000000000000000000000E381E3C37
:101910001E3C1E3C36363636363666326633663305
:10192000C631C631C6310630063006300000000030
:1019300000000000000000000000000000000000A7
:101940001C301C303C307C307C30FC30EC31CC31F5
:10195000CC338C370C3F0C3E0C3E0C3C0C380C3816
:101960000000000000000000000000000000000077
:1019700000000000E007F00F381C1C381C380E7007
:101980000E700E700E700E700E701C381C38381CE5
:10199000F00FE00700000000000000000000000061
:1019A0000000000000000000F81FF83F3878387091
:1019B000387038703878383CF81FF807380038002D
:1019C0003800380038003800000000000000000037
:1019D000000000000000000000000000E007F00F21
:1019E000381C1C381C380E700E700E700E700E7085
:1019F0000E701C381C38381CF00FE007001E0078F1
:101A000000F00040000000000000000000000000A6
:101A1000FC07FC0F1C1E1C1C1C1C1C1C1C0EFC07A9
:101A2000FC039C071C071C0F1C1E1C3C1C381C784C
:101A300000000000000000000000000000000000A6
:101A400000000000E00FF81F3C181C001C003C00C8
:101A5000F800F007C01F003E0038003800380C1CAA
:101A6000FC1FF00700000000000000000000000064
:101A70000000000000000000FF7FFF7FC001C001E8
:101A8000C001C001C001C001C001C001C001C0014E
:101A9000C001C001C001C001000000000000000042
:101AA0000000000000000000000000001C701C701E
:101AB0001C701C701C701C701C701C701C701C70C6
:101AC0001C701C703C783838F01FE00F00000000DC
:101AD0000000000000000000000000000000000006
:101AE00007E00E700E701C701C383C383838381CFB
:101AF000701C700CE00EE00EE007C007C00780030A
:101B000000000000000000000000000000000000D5
:101B10000000000003C003C007C08661C663C6633F
:101B2000C663C6634E766C366C366C362C3E3C3CD7
:101B30003C1C3C1C000000000000000000000000F5
:101B400000000000000000001EE03C707838781CA7
:101B5000F00EE007C003C003C007E007600F301EAF
:101B6000183C1C380E7807F0000000000000000050
:101B700000000000000000000000000007E00E7000
:101B80001C301C18381C780E7007E003E003C001FD
:101B9000C001C001C001C001C001C00100000000BF
:101BA0000000000000000000000000000000000035
:101BB000FC3FFC3F0038001C000E00078003800142
:101BC000C000E000700038001C000E00FE3FFE3F29
:101BD000000000000000000000000000C03FC03F07
:101BE000C001C001C001C001C001C001C001C001ED
:101BF000C001C001C001C001C001C001C001C001DD
:101C0000C001C001C001C001C03FC03F00000000D2
:101C100006000C000C0018001800300030006000B6
:101C20006000C000C00080018001000300030006C6
:101C30000006000C000C0018001800300030006096
:101C400000000000FC03FC0380038003800380038A
:101C5000800380038003800380038003800380036C
:101C6000800380038003800380038003800380035C
:101C7000FC03FC03000000000000000100018003E1
:101C80008003C003C006E006600C300C3018181842
:101C900018180C300C300660000000000000000036
:101CA0000000000000000000000000000000000034
:101CB0000000000000000000000000000000000024
:101CC0000000000000000000000000000000000014
:101CD00000000000FFFFFFFF000000000000C00147
:101CE000800300070000000000000000000000006A
:101CF00000000000000000000000000000000000E4
:101D000000000000000000000000000000000000D3
:101D100000000000000000000000000000000000C3
:101D2000E007F80F181E001C001CE01FF01F381CF5
:101D30001C1C1C1C1C1C3C1EF87BF07800000000C6
:101D400000000000000000001C001C001C001C0023
:101D50001C001C009C07DC1F7C1C3C381C381C38F9
:101D60001C381C381C381C381C1C3C1EFC0FCC07B3
:101D70000000000000000000000000000000000063
:101D80000000000000000000C01FF03F7820380075
:101D90001C001C001C001C001C003C003800F8202B
:101DA000F03FC01F00000000000000000000000025
:101DB000007000700070007000700070C073F07FE1
:101DC000787C38701C701C701C701C701C701C702F
:101DD0003C78387CF077E0730000000000000000E1
:101DE00000000000000000000000000000000000F3
:101DF000C007F00F781C38381C381C38FC3FFC3FFB
:101E00001C001C0038007820F03FC01F00000000BC
:101E1000000000000000000000FF80FFC003C001C0
:101E2000C001C001FC7FFC7FC001C001C001C00136
:101E3000C001C001C001C001C001C001C001C0019A
:101E40000000000000000000000000000000000092
:101E50000000000000000000C073F07F787C387044
:101E60001C701C701C701C701C701C703C78387CC2
:101E7000F077E07300700038183CF81F000700008E
:101E80001C001C001C001C001C001C001C0FDC1F84
:101E90007C3C3C381C381C381C381C381C381C381E
:101EA0001C381C381C381C380000000000000000E2
:101EB0000000000080038003800300000000000099
:101EC000FC03FC0380038003800380038003800302
:101ED00080038003800380038003800300000000F0
:101EE0000000000000000000000E000E000E0000C8
:101EF00000000000F80FF80F000E000E000E000E9C
:101F0000000E000E000E000E000E000E000E000E61
:101F1000000E000E0407FC07F8010000380038002E
:101F20003800380038003800383C381E380E380F7A
:101F3000B807B803F803B803B807380F380E381ECF
:101F4000383C38780000000000000000000000006D
:101F5000F807F80700070007000700070007000759
:101F60000007000700070007000700070007000739
:101F70000007000700070007000000000000000045
:101F80000000000000000000000000000000000051
:101F9000CE31EE79FE7F9E779E738E738E738E7335
:101FA0008E738E738E738E738E738E73000000002B
:101FB0000000000000000000000000000000000021
:101FC000000000001C0FDC1F7C3C3C381C381C3817
:101FD0001C381C381C381C381C381C381C381C3861
:101FE00000000000000000000000000000000000F1
:101FF0000000000000000000E003F80F3C1E1C1C65
:102000000E380E380E380E380E380E381C1C3C1E9A
:10201000F80FE003000000000000000000000000D6
:102020000000000000000000000000009C07DC1F12
:102030007C1C3C381C381C381C381C381C381C389C
:102040001C1C3C1EFC0F9C071C001C001C001C00E0
:102050001C00000000000000000000000000000064
:10206000E039F83F3C3E1C380E380E380E380E383A
:102070000E380E381E3C1C3EF83BF0380038003855
:1020800000380038003800000000000000000000A8
:1020900000000000703E703FF031F03070007000C2
:1020A00070007000700070007000700070007000B0
:1020B0000000000000000000000000000000000020
:1020C0000000000000000000E00FF01F7810380052
:1020D0003800F801F007801F003C00380038183C39
:1020E000F81FF007000000000000000000000000E2
:1020F0000000000000000000E000E000FC3FFC3FAA
:10210000E000E000E000E000E000E000E000E000CF
:10211000E000E001C03F803F000000000000000040
:1021200000000000000000000000000000000000AF
:102130001C381C381C381C381C381C381C381C38FF
:102140001C381C381C3C3C3EF83BF03800000000BA
:10215000000000000000000000000000000000007F
:10216000000000001E701C381C383C383818381C21
:10217000701C700CE00EE00EE006C007C007800384
:10218000000000000000000000000000000000004F
:10219000000000000000000003C087C38743C6633F
:1021A000C66346626E666E266C362C363C3C3C3C02
:1021B0003C1C181C00000000000000000000000093
:1021C0000000000000000000000000001E303C186D
:1021D000780C700EF006E003C003C003E007700F38
:1021E000300E381E1C3C0E7800000000000000007D
:1021F00000000000000000000000000000000000DF
:102200001E701C301C383818381C781C700EF00EEC
:10221000E007E007C003C003C0018001C001C000A7
:10222000E0007C003C000000000000000000000016
:1022300000000000FC3FFC3F0038001C000E0007BF
:102240008003C001E000700038001C00FC3FFC3F30
:10225000000000000000000000000000001F801FC0
:10226000C003C001C001C00180038003800380035C
:10227000C001F800F800C0018003800380038003E0
:10228000C001C001C001C003801F001F000000008A
:102290008001800180018001800180018001800136
:1022A0008001800180018001800180018001800126
:1022B0008001800180018001800180018001800116
:1022C000000000007C00FC00E001C001C001C00172
:1022D000E000E000E000E000C001800F800FC001DE
:1022E000E000E000E000E000C001C001C001E0014A
:1022F000FC007C0000000000000000000000000066
:1023000000000000000000000000000000007860F5
:10231000FC63C63F061E0000000000000000000035
:10232000000000000000000000000000FE7FFE7FB3
:102330007E7C3E7C1E7C0E7C7E7C7E7C7E7C7E7CDD
:102340007E7C7E7C7E7C7E7C7E7C7E7C7E7C0E6049
:102350000E60FE7FFE7F0000000000000000000015
:10236000FE7FFE7F1E7C0E78C671E663E663FE6329
:10237000FE63FE71FE787E7C3E7E1E7F8E7FC67F72
:10238000C67F06600660FE7FFE7F00000000000042
:1023900000000000FE7FFE7F1E780E70C661E663BF
:1023A000E663FE63FE713E783E78FE71FE63FE6377
:1023B000E663E663C6610E701E78FE7FFE7F000056
:1023C000000000000000000000000000000000000D
:1023D000FF7FE143E363E363E363E363C7710F7884
:1023E0000F78C771E363E363E363E363E143FF7F74
:1023F00000000000000000000000000000000000DD
:1024000000000000FFFFFFFF0300030003000300C4
:1024100003000300030003000300030003000300A4
:10242000FFFFFFFF000000000000000000000000B0
:102430000000000000000000FFFFFFFF030003009A
:10244000F33FF33FF33FF33FF33FF33FF33FF33FFC
:1024500003000300FFFFFFFF00000000000000007A
:10246000000000000000000000000000FF3FFF3FF0
:102470000030003000F000F000C000C000C000C01C
:1024800000F000F000300030FF3FFF3F0000000090
:10249000000000000000000000000000000000003C
:1024A000FF3FFF3F00300030FFF3FFF3FFC3FFC3E8
:1024B000FFC3FFC3FFF3FFF300300030FF3FFF3FD8
:1024C0000000000000000000000011241FBECFEF3C
:1024D000D0E1DEBFCDBF11E0A0E0B1E0E6E2FCEA72
:1024E00002C005900D92A031B107D9F722E0A0E11A
:1024F000B1E001C01D92A930B207E1F70E94A052DD
:102500000C94CC550C9400009091BE01981303C01C
:102510008091C10108959091BF01981303C08091EB
:10252000C20108958091C301089580E00E947D2D2D
:1025300081E00E947D2D82E00E947D2D8DE30E942E
:10254000DC5080E00E94992D81E00E94992D82E06C
:102550000E94992D0895A3E0B0E0E1EBF2E10C9424
:102560001C55C0903601D090370189836A834B8314
:10257000CE0101967C0110E000E0F701B1907F01EF
:10258000BB20C9F0802F0E947D2D0E94BE2DF80136
:10259000EE0FFF1FE050FF4F808191819093370134
:1025A000809336018B2D0E94DC50D0923701C0926F
:1025B00036010E94B62D0F5F1F4F03301105E9F65B
:1025C0002396E9E00C943855AF92BF92CF92DF92F8
:1025D000EF920F93CF93DF9300D000D00F92CDB73F
:1025E000DEB729830D830E94E52A082F0E940B2D58
:1025F00085E40E94DC50B980AB2CB12CD12CC12CCD
:1026000020E040E0C601B5010E94422E0E94B62D96
:1026100041E08D818A3008F040E08D816AE00E94BF
:102620006954A82EB12CD12CC12C25E2C601B501CC
:102630000E94422E0E94B62D002361F1B09031011C
:10264000B9824E2D6091D7018091D3019091D40130
:102650000E94982F023081F40E940B2D609132016C
:1026600089810E947E4F4E2D6091DC018091D801BE
:102670009091D9010E94982F0F900F900F900F907A
:102680000F90DF91CF910F91EF90DF90CF90BF909F
:10269000AF9008950E94BA2DEFCFEF92FF920F9363
:1026A000CF93DF9300D000D00F92CDB7DEB7298350
:1026B0000E94E52A8D830E940B2D85E40E94DC5048
:1026C0009981892F90E0B0E0A0E020E040E0BC01DB
:1026D000CD010E94422E0E94B62DAD81AA2351F158
:1026E000B0913101B983A7016091D7018091D301E5
:1026F0009091D4010E9486308D81823081F40E94B5
:102700000B2D6091320189810E947E4FA70160915B
:10271000DC018091D8019091D9010E9486300F9000
:102720000F900F900F900F90DF91CF910F91FF902E
:10273000EF9008950E94BA2DF2CF0F93CF930AE045
:1027400020E60E94E52AC82F0E940B2D85E40E94F6
:10275000DC5020E040E060E670E080E090E00E9425
:10276000422E0E94B62D25E240E061E070E080E05C
:1027700090E00E94422E0E94B62DCC2399F06091E9
:10278000D7018091BE010E94BE2FC23041F40E9449
:10279000B62D6091DC018091BF010E94BE2FCF91C8
:1027A0000F9108950E94BA2DFACF82E00E94352E33
:1027B00084E194E00E94522D8DE094E00E94D42D9B
:1027C0008EE08093190183E00E9435308091BC0136
:1027D0008F5F8093BC010895A4E0B0E0E2EFF3E1E5
:1027E0000C94235580911101813029F589EB93E0F8
:1027F0000E94432D0E940B2D809116010E947D2D79
:102800000E94BE2D0E94B62D809117019091180153
:102810009C0150E040E029833A834B835C8326E5AA
:102820004DEF69817A818B819C810E94C02E249614
:10283000E2E00C943F558230D1F70E94D513F7CFD8
:10284000A5E0B0E0E6E2F4E10C94235569834D8302
:10285000442309F10E94992D82E092E00E94432DC9
:102860008D818823D9F089810E94992D0E94B62DEF
:1028700080911E0190911F01A0912001B091210132
:1028800024E040911D01BC01CD010E94C02E25967F
:10289000E2E00C943F550E947D2DDECF89810E949D
:1028A0007D2DE4CFA8E0B0E0E8E5F4E10C94195503
:1028B00080911401813009F0F0C010911B01D12CDE
:1028C000C12C2BE131E03E832D830E94182EED8137
:1028D000FE818081811709F449C10E947D2D82E02B
:1028E00092E00E94432D812F0E947D2DC114D104BE
:1028F00059F082E092E00E94432DF6018081811719
:1029000009F439C10E947D2D0E94232E0E940B2DB7
:10291000AD81BE811396ED90FD900D911C9116979F
:10292000E982FA820B831C8324E012964C91C80141
:10293000B7010E94C02EC114D10409F41EC10E9427
:10294000B62DD6011396ED90FD900D911C91169722
:10295000E982FA820B831C8324E012964C91C80111
:10296000B7010E94C02EF6010381148125813681B2
:10297000AD81BE8113968D919D910D90BC91A02D3E
:1029800089839A83AB83BC83E280ED81FE8142819F
:10299000BC01CD010E94941E182FAD81BE811396FB
:1029A0002D913D914D915C91169729833A834B83EC
:1029B0005C83282F12964C9169817A818B819C814E
:1029C0000E946C1E4B015C01D60113962D913D9126
:1029D0004D915C91169729833A834B835C83212F19
:1029E00012964C9169817A818B819C810E946C1E28
:1029F0009B01AC01280D391D4A1D5B1D29833A83BB
:102A00004B835C83232B242B252B09F442C08DE1BF
:102A100092E00E94E12D24E0412F69817A818B812F
:102A20009C810E94C02E8AE192E00E94E12DA4E6E2
:102A3000B0E0A50194010E94085529813A814B819B
:102A40005C810E94AB5429833A834B835C8325E2EB
:102A500040E069817A818B819C810E94C02E0E9416
:102A6000B62D87E192E00E94C22D84E690E0A0E0BE
:102A7000B0E07C018D0129813A814B815C81E21AB1
:102A8000F30A040B150B25E240E0C801B7010E94D0
:102A9000C02E2896ECE00C943555833009F05DC0CB
:102AA000EBE1AE2EE1E0BE2E42E251E05E834D83CB
:102AB000D50113960D911D912D913C911697AD81E5
:102AC000BE8113968D919D910D90BC91A02D89830F
:102AD0009A83AB83BC83F501E280AD81BE811296FF
:102AE0004C9169817A818B819C810E94CA1D8130C1
:102AF00011F4AD80BE80ED81FE813796FE83ED83BB
:102B0000E053F140A9F61BE1A11611E0B10601F571
:102B100022E231E03E832D83CD80DE8057E0C50E7A
:102B2000D11CAC14BD0429F4CD80DE808EE0C80E2B
:102B3000D11CED81FE818081D6011C91811709F4A1
:102B4000C4CE11961C91811709F4BFCE1181BDCE60
:102B50004BE151E05E834D83DFCF72E2C72E71E01F
:102B6000D72EABE1B1E0BE83AD83E3CFAD81BE81B3
:102B700011968C91B2CE8181C5CE8D819E810E94AD
:102B80006344813009F040C00E94B62D8091FB0162
:102B90009091FC01A091FD01B091FE0128E44091CB
:102BA000FA01BC01CD010E94C02EE090FB01F09023
:102BB000FC010091FD011091FE01E982FA820B8374
:102BC0001C8368E4E62E08EC26E04091FA01698156
:102BD0007A818B819C810E94E4120091FB0110910B
:102BE000FC012091FD013091FE0109831A832B83A2
:102BF0003C8304E62CE04091FA0169817A818B8163
:102C00009C810E94E41245CFAD81BE8113962D9127
:102C10003D914D915C91169729833A834B835C8358
:102C200084E0E82E02E328E112964C9169817A81D2
:102C30008B819C810E94E412AD81BE811396ED9040
:102C4000FD900D911C911697E982FA820B831C83EB
:102C500094ECE92EFE2C02E328E112964C91698156
:102C60007A818B819C810E944D13AD81BE81139628
:102C7000ED90FD900D911C911697E982FA820B83DD
:102C80001C8324E0E22E0AE028E112964C9169812F
:102C90007A818B819C810E94E412AD81BE81139662
:102CA000ED90FD900D911C911697E982FA820B83AD
:102CB0001C8337E2E32E3AE7F32E0AE028E112966E
:102CC0004C9169817A818B819C810E944D13AD81E9
:102CD000BE811396ED90FD900D911C911697E9829F
:102CE000FA820B831C8344E0E42E0AE020E612966D
:102CF0004C9169817A818B819C810E94E412AD8123
:102D0000BE811396ED90FD900D911C911697E9826E
:102D1000FA820B831C8357E2E52E5AE7F52E0AE070
:102D200020E612964C9169817A818B819C810E9468
:102D30004D13AD81BE811396ED90FD900D911C91C8
:102D40001697E982FA820B831C8312964C91C80174
:102D5000B7010E949D139DCECF92DF92EF920F9309
:102D60001F93CF93DF9300D000D000D0CDB7DEB754
:102D70003BE5C32E31E0D32EDE82CD8230E1C30E9F
:102D8000D11CAD81BE8113960D911D912D913C9169
:102D90001697D60113968D919D910D90BC91A02D03
:102DA00089839A83AB83BC83ED81FE81E280D60167
:102DB00012964C9169817A818B819C810E94CA1DF7
:102DC000813011F4DE82CD82BBE7CB16B1E0DB06A9
:102DD000A9F60E94182EED81FE8180810E947D2D32
:102DE0008FE092E00E94432DAD81BE8111968C91BF
:102DF0000E947D2D0E94232E0E940B2DAD81BE814D
:102E000013962D913D914D915C91169729833A83AC
:102E10004B835C8326E412964C9169817A818B8185
:102E20009C810E94C02E8D819E810E949A346C01EB
:102E3000019689F00E94B62D960150E040E029836A
:102E40003A834B835C8324E04EEF69817A818B81E6
:102E50009C810E94C02EAD81BE811B968D919C915C
:102E6000892BB9F082E692E00E94E12DED81FE818E
:102E7000838594859C0150E040E029833A834B830D
:102E80005C8321E4458569817A818B819C810E94E4
:102E9000C02EAD81BE811E968D919C91892BB9F07B
:102EA00083E192E00E94E12DED81FE818685978588
:102EB0009C0150E040E029833A834B835C8325E208
:102EC0004FEF69817A818B819C810E94C02EAD81F8
:102ED000BE8113968D919D910D90BC91A02D8983FB
:102EE0009A83AB83BC8326E4E22E08EC26E0ED81D6
:102EF000FE814281BC01CD010E94E412AD81BE8100
:102F000013962D913D914D915C91169729833A83AB
:102F10004B835C8304E62CE012964C9169817A81A4
:102F20008B819C810E94E41226960FB6F894DEBF36
:102F30000FBECDBFDF91CF911F910F91EF90DF902A
:102F4000CF900895EF920F931F93CF93DF9300D00C
:102F500000D000D0CDB7DEB78E839D838091D301A2
:102F60009091D401A091D501B091D60127EFE22E26
:102F700002E310E020E030E04091D701BC01CD0138
:102F80000E94CA1D87FD13C08E819D810E94E12D84
:102F90008091D3019091D401A091D501B091D60137
:102FA00021E44091D701BC01CD010E94C02E26969C
:102FB0000FB6F894DEBF0FBECDBFDF91CF911F914A
:102FC0000F91EF900895A4E0B0E0E9EEF7E10C94E2
:102FD0002355FC0140E0608181810E941939EBE5B5
:102FE000F1E083819481A581B68126E44281BC0110
:102FF000CD010E94C02E2496E2E00C943F55CF9361
:10300000C62F0E94992D81E00E94DC508C2F0E94D7
:10301000992DCF910895A6E0B0E0E1E1F8E10C949C
:103020001C550E94182ED090150121E0D2120DC01F
:10303000E0908C0185E0C82E95E0B92E25E0F22EB7
:103040001E821D820BE811E06FC032E0D31222C055
:10305000F0908B01C090910180918C01E0909201E1
:10306000FC1409F491C08E1509F436C1FE103EC15E
:10307000C81609F42AC1A5E0CA2EB5E0BB2E15E09A
:10308000E12E05E0F02EDD24D39441E951E05E838A
:103090004D83D8CF53E0D5126AC000E046E0202F20
:1030A00030E0802F1982409FF0011124E457FE4F39
:1030B0009981692F70E0891709F452C0469FD001A9
:1030C000479FB00D1124A557BE4F50819C915913B5
:1030D00049C095E085E09F5F933008F43FC08F5F63
:1030E0008330D0F1853008F43FC0E98146E0E49FA9
:1030F000F0011124E557FE4FFE83ED8386E0089F23
:103100008001112405571E4F829FF001839FF00D0F
:103110001124E557FE4FE18073E0F72EE5E0CE2E57
:10312000F5E0BF2EDD24D394F80180810E947D2D2F
:103130008BE092E00E94432D8E2D0E947D2D2D81EB
:103140003E81232B09F446C0FE10E6C0ED81FE81CE
:10315000E08087E092E039C0082FA1CF9983A8CF03
:10316000982FB9CF9981B7CF1E821D82C7CF8BE030
:1031700092E00E94C22D80911501805D0E94DC507A
:103180002696E9E00C943855B82EF5E0F983DD2455
:10319000D39422E02F1508F4B8C00E947D2D87E05B
:1031A00092E00E94432D8F2D0E947D2D3981CE2CDF
:1031B00041E951E05E834D830BE811E0F31631F2F3
:1031C000ED81FE81E1808BE092E00E94432D8E2D07
:1031D0000E947D2D0E94232EF4E0FB15E8F049E1CA
:1031E0006C2D8B2D0E944B348130B1F40E94B62D92
:1031F00022E08BEC92E02F1510F48FEC92E00E940D
:10320000432D8FE30E94DC500E940B2D40E06C2D7B
:103210008B2D0E942014D12C86EB92E00E94E12D90
:10322000F801828193819C0150E040E029833A8338
:103230004B835C8326E54DEF69817A818B819C818C
:103240000E94C02E0E94B62D4D815E81452B09F053
:1032500068C0F801848195818A3F9105A0F488E2D5
:103260000E94DC50F801848195819C0150E040E08F
:1032700029833A834B835C83CA01B9010E946C2F76
:1032800089E20E94DC50F801608181810E9413294B
:1032900081E00E94AE3A8CEA92E00E94A21731E0EF
:1032A000D3126ECF84EB92E00E94E12DC8010E9400
:1032B000E3174D815E81452B09F462CF0E94B62D44
:1032C0008D819E810E94E3175BCFF98255E0E52E48
:1032D00065E0B62ED12C5DCFBF2C45E0F42EDD2469
:1032E000D39481E991E09E838D83ACCE85E0C82E96
:1032F00095E0B92E25E0E22E35E0F32EDD24D394BF
:10330000E1E9F1E0FE83ED839DCECE2CE98021E959
:1033100031E03E832D8396CEF3E0FF1508F416CFFF
:103320004FCFED81FE81828193819C0150E040E08E
:1033300029833A834B835C8326E54DEF69817A814B
:103340008B819C810E94C02EAACFA6E0B0E0EBEA60
:10335000F9E10C9419552091C0012D831091BE0103
:103360003091BF0139838091110180FF19C1E32E93
:10337000F12E032F29831D83122F9FECC92E92E07B
:10338000D92E62EF77E080EA93E00E94132E62EF7D
:1033900077E0C6010E94002E8091110182FF03C0D8
:1033A0008BE20E94DC50602F89810E94223B6C01DD
:1033B000892B31F00E940B2D602F89810E94FF170D
:1033C00049E16D81812F0E944B34813061F40E946C
:1033D0000B2D41E06091C0018091BE010E9420143C
:1033E00084E080933A0187EC92E00E94E12D809185
:1033F000CB019091CC01A091CD01B091CE01BC0147
:10340000CD010E946C2F0E94B62D8091C40180FFD7
:10341000CFC085E60E94DC508AE392E00E94C72D6F
:103420008091C40180FFC8C083E40E94DC500E94E8
:10343000B62D8091C9019091CA019C01990F440B4E
:10344000550B29833A834B835C8321E44AEF6981DE
:103450007A818B819C810E94712FC114D10401F566
:103460008091CF019091D001A091D101B091D20172
:10347000892B8A2B8B2BA1F085E392E00E94E12D12
:103480008091CF019091D001A091D101B091D20152
:1034900089839A83AB83BC83BC01CD010E946C2FCE
:1034A000612F8D810E94223B8C01892B09F48EC0F3
:1034B00083EC92E00E94E12DD80112960D90BC9110
:1034C000A02DBE83AD83F801248135818090CB018E
:1034D0009090CC01A090CD01B090CE01F4E68F1673
:1034E0009104A104B104A0F0CD01821B930B63E011
:1034F00070E00E9497544AEF84169104A104B1042D
:1035000008F05EC08D819E81861B970B9E838D8304
:10351000ED81FE81CF01B0E0A0E026E54DEF89838B
:103520009A83AB83BC83BF01CD010E94C02E89EB7F
:1035300092E00E94A2172D813E81253F314060F12B
:103540006E2D8F2D0E94223B89839A8389819A81D7
:10355000009711F1DC0112968D919C91823C914073
:10356000D8F40E940B2D6E2D8F2D0E94FF170E9404
:10357000B62DE981FA81828193819C0150E040E07F
:1035800029833A834B835C8326E54DEF69817A81F9
:103590008B819C810E94C02E2696ECE00C943555C0
:1035A000E12EF9800D818BECC82E82E0D82EE9CE79
:1035B00081FF32CF83E62ECF81FF39CF85E435CF2F
:1035C000D901A60FB71FBE83AD83A2CF1E821D8275
:1035D000AECFA6E0B0E0EFEEFAE10C9421551091E9
:1035E000BF010091C0018091110180FF03C0812FB4
:1035F000102F082F602F812F0E94223B8D839E83E6
:103600002D813E81232B51F08091110184FD06C054
:103610000E940B2D602F812F0E94FF1780911101B6
:1036200082FF52C08091C7019091C801892BC1F0DF
:1036300080EB92E00E94E12D8091C7019091C8013A
:103640009C01990F440B550B29833A834B835C8370
:1036500026E54DEF69817A818B819C810E94712FD3
:1036600083ED92E00E94E12D8091D8019091D901E3
:10367000A091DA01B091DB0189839A83AB83BC838B
:1036800026E44091DC01BC01CD010E94C02E809156
:10369000C5019091C601892BB9F08EE592E00E9498
:1036A000E12D8091C5019091C6019C0150E040E060
:1036B00029833A834B835C8324E04EEF69817A81CE
:1036C0008B819C810E94C02E4D815E81452BF9F03B
:1036D0000E940B2D81E00E94DC500E94B62D86EBEB
:1036E00092E00E94C22DAD81BE8112968D919C9177
:1036F0009C0150E040E029833A834B835C8326E5BC
:103700004DEF69817A818B819C810E94C02E269623
:10371000E4E00C943D550E94B62D8091110180FF8C
:1037200008C08EE40E94DC5086EE92E00E94432D99
:10373000089580E5F7CF0E94B62D8091110182FF98
:1037400005C081EE92E00E94432D08958CED92E039
:10375000FACFA4E0B0E0EFEAFBE10C9423550E941D
:10376000182E8091110184FF41C08EEE92E00E94DC
:10377000432D8AEE92E00E94432D0E948B1B809184
:10378000110184FD0E949B1B0E94232E0E94E91AB6
:103790008091110183FF26C086E692E00E94A21765
:1037A0008091C9019091CA01892BE1F084E592E0F2
:1037B0000E94E12D0E940B2D0E94B62D8091C9011F
:1037C0009091CA019C01990F440B550B29833A83B0
:1037D0004B835C8326E54DEF69817A818B819C81E7
:1037E0000E94712F2496E2E00C943F558AE40E94D7
:1037F000DC50BFCF0E94182E87ED92E00E94432D2F
:103800000E948B1B0E949B1B0E94232E0E94E91A80
:103810000895A4E0B0E0EFE0FCE10C942355809122
:10382000100162EF77E0823229F58CE993E00E9483
:10383000002E8091C5019091C601892BB9F08EEBC5
:1038400092E00E94E12D8091C5019091C6019C01FA
:1038500050E040E029833A834B835C8326E54DEFBB
:1038600069817A818B819C810E94C02E2496E2E03E
:103870000C943F5586E993E0DACFA4E0B0E0E3E4AE
:10388000FCE10C94235562EF77E082E993E00E941B
:10389000002E89EA92E00E94E12D80914D019091E5
:1038A0004E019C0150E040E029833A834B835C83C6
:1038B00026E54DEF69817A818B819C810E94C02E23
:1038C00086EB92E00E94E12D80914B0190914C019A
:1038D0009C0150E040E029833A834B835C8326E5DA
:1038E0004DEF69817A818B819C810E94C02E249644
:1038F000E2E00C943F55A4E0B0E0E1E8FCE10C9478
:10390000235562EF77E08EE293E00E94002E8DE374
:1039100092E00E94E12DEBE1F1E083819481A581A9
:10392000B68124E04281BC01CD010E94C02E2496C4
:10393000E2E00C943F55A5E0B0E0E1EAFCE10C9434
:10394000235588EC8093B20184E00E942F28AC01BB
:103950008B5C98402091AF012D83833F914098F577
:103960002091B7013091B801AFEBB9E00E94F25459
:103970009A0150E040E00E94AB543093B80120938C
:10398000B7018D8184608093AF018EE10E942F2862
:103990009093B6018093B50188EC8093B2018EE1DB
:1039A0000E942F282091F601820F911D27FD9A95E4
:1039B0009093B6018093B5018EE18093B201259674
:1039C000E2E00C943F552D812B7F2093AF01DDCF9A
:1039D0000E940F508DEF97E090933701809336014E
:1039E00081E00E94352E8DE893E00E94522DF894DC
:1039F0000FB6F894A895809160008861809360006C
:103A0000109260000FBE469883B7817F846083BFA9
:103A100083B7816083BF889583B78E7F83BF089506
:103A2000A4E0B0E0E6E1FDE10C9423558091B901FA
:103A30009091BA0188342DE0920748F580E898EF1C
:103A400090933701809336018EE089838CE00E9449
:103A5000DC5089810E94DC500E94B62D87E297E0FD
:103A600090933701809336018091B9019091BA010A
:103A70006AE070E00E948354B0E0A0E026E54EEFDB
:103A8000CD010E94C02E2496E2E00C943F55803177
:103A90009E4050F480E49FEF90933701809336016D
:103AA000BEE0B9838DE0D3CF82EF97E090933701EA
:103AB000809336012FE02983F5CFA4E0B0E0E3E660
:103AC000FDE10C94235585E00E942F289C01AEEB6C
:103AD000BFE00E94F25428EE33E040E050E00E9444
:103AE000AB543093BA012093B90184E68093BB01B3
:103AF00028343D4080F487E297E09093370180932B
:103B000036010E940F500E94101D88EB9BE00E941E
:103B100013230E94E81C2496E2E00C943F55CF92B8
:103B2000DF92EF92FF92CF93DF9300D000D00F92FD
:103B3000CDB7DEB769837A838B839C8381E08D83E5
:103B40008AE0C82ED12CE12CF12C89819A81AB819D
:103B5000BC810A97A105B10568F48D810F900F9083
:103B60000F900F900F90DF91CF91FF90EF90DF902B
:103B7000CF90089569817A818B819C81A7019601FC
:103B80000E94AB5429833A834B835C839D819F5F62
:103B90009D83DBCFA6E0B0E0E0EDFDE10C94145591
:103BA0004B015C01342E280139011E2D89829A8235
:103BB000AB82BC8281E08D839AE0C92ED12CE12CAE
:103BC000F12C89819A81AB81BC810A97A105B1054D
:103BD00060F549825A826B827C8291E09E838AE002
:103BE000C82ED12CE12CF12C89819A81AB81BC812A
:103BF0000A97A105B10548F581149104A104B10407
:103C000009F450C0411451046104710409F445C021
:103C10004D81430DEE80E10EE4160CF45BC0ED81A6
:103C2000FE814E1559F18FEF45C069817A818B81F4
:103C30009C81A70196010E94AB5429833A834B8350
:103C40005C839D819F5F9D83BCCF69817A818B81DD
:103C50009C81A70196010E94AB5429833A834B8330
:103C60005C83AE81AF5FAE83BFCFAAE0B0E0A301BB
:103C700092010E9408552B013C01FF5F9D81F917BD
:103C8000A4F3AE819A17D4F09A1B9983B9818E81DF
:103C9000B80FB9839981E9179CF0481459046A0454
:103CA0007B04C0F081E084149504A604B70408F0F6
:103CB00080E081952696E1E10C9430551982E6CF9B
:103CC000AAE0B0E0A50194010E9408554B015C01F7
:103CD000EF5FE0CF81E0EECFCF92DF92EF92FF92E5
:103CE000CF93DF93C42FD22F2AE0C22ED12CE12C08
:103CF000F12CCD1307C0DF91CF91FF90EF90DF90B3
:103D0000CF900895CD1744F4A70196010E94AB54BB
:103D1000B901CA01CF5FEDCFAAE0B0E09B01AC01D1
:103D20000E940855C150E5CF8F929F92AF92BF92EB
:103D3000EF920F931F93CF93DF93CDB7DEB72A9700
:103D40000FB6F894DEBF0FBECDBF69837A838B8335
:103D50009C834A870D831E832F833887E98601E081
:103D60009AE0892E912CA12CB12C89819A81AB816A
:103D7000BC810A97A105B10550F5EA84E00E11E077
:103D80008AE0882E912CA12CB12C8D819E81AF814F
:103D9000B8850A97A105B10540F58985810F8E1573
:103DA00094F50530E4F19CEF9E0D998789852A965C
:103DB0000FB6F894DEBF0FBECDBFDF91CF911F913C
:103DC0000F91EF90BF90AF909F908F900895698171
:103DD0007A818B819C81A50194010E94AB54298337
:103DE0003A834B835C830F5FC0CF6D817E818F816F
:103DF0009885A50194010E94AB542D833E834F8387
:103E000058871F5FC2CFE8162CF415307CF284501F
:103E10008987CCCF101754F6AA85A987C7CFBA8552
:103E2000B987C4CF0F931F93CF93DF93182FEC0163
:103E30000C2F011BCE010E94A655811106C0802FB8
:103E4000DF91CF911F910F9108952196F1CFCF93DC
:103E5000C7B187B1877E87B90E948F5296B1892FEB
:103E6000887093FD82E094FD8160C7B99091430111
:103E7000913031F480934201109243011092450138
:103E8000909145012FEF290F293F18F49F5F9093E0
:103E900045019091420180934201891302C080E064
:103EA00028C0282F292720FF2695213031F5990F8A
:103EB00022E730E002C0359527959A95E2F7237006
:103EC0008217C9F085E0909144019F5F909344016F
:103ED00090914301981729F091E0909344019093B9
:103EE000450180934301909144019430C0F21092B7
:103EF0004401CF91089584E0E6CF81E080934301AF
:103F0000CECFB0E0A0E0E7E8FFE10C9413557C01D0
:103F1000D62F81E0809343011092440180934001A9
:103F20008091B00168E5C62E62E0D62E85FD02C004
:103F3000D12CC12CD2FF05C08091AF0180FD75C08E
:103F4000DC7FA0903601B090370182EF97E090932C
:103F50003701809336018D2F8072982ED5FF19C0BE
:103F600080914601909147010E94121F81509090CC
:103F70003301891508F05CC0981ADC7F6091340128
:103F8000892D0E947E4F80914601909147010E94A9
:103F9000432D9D2F9370592E19F081E00E944951B5
:103FA00032E0632E812C42E3742E10E0C1E000E089
:103FB0008D2F8270482E9D2F9071392E58E1252E1D
:103FC000E114F10439F083E0E816F10498F192E08D
:103FD000E91AF10837993BC08EE190E00E94132363
:103FE00010E0C11129C0CD2FC87001E0D3FFB7C0C8
:103FF00082E390E00E941323C4E101E037990CC0F2
:104000008EE190E00E941323379906C088EC90E07F
:104010000E941323C1E003E0C1508AE090E00E94B7
:104020001323C111EBCF10E09AC0F12CE12C89CF02
:10403000912CAFCFC0E0CECF3799D5CF1F5F1B31CA
:1040400009F48BC08AE090E00E941323CACF0E943B
:10405000271F882309F448C0882009F1801701F13F
:10406000B0923701A0923601552019F080E00E94ED
:104070004951992041F060913401892D0E947E4F71
:1040800080E00E94A94F00933F01073611F40E947F
:10409000E81C802FCDB7DEB7E2E10C942F55082F36
:1040A000839480914501682D0E9469549CE0790EAB
:1040B000780E829DC001112424E0969587952A955B
:1040C000E1F7282F893270F48695869586952831F8
:1040D00010F493E0692E681007C097E0981B909346
:1040E0004001BECF85E0F7CF882029F080914501BF
:1040F000871508F0B5CF82E090E00E9413231F5F80
:10410000812F68E20E946954911107C08091BB0120
:104110008230C8F081508093BB01183C01F54420E7
:1041200031F0C130A9F480E00E944951C2E0C114CD
:10413000D10409F478CF81E0C816D104D1F091E020
:10414000C91AD10870CF332041F30E945D1DE5CF1D
:1041500081E00E944951C1E0EACFC0E002E08091D5
:10416000B00180FF0AC08091B0018E7F8093B001C2
:1041700077CF10E0C0E007E6F2CFC11121CF70CFBA
:1041800065E188EB9BE00E94811F0895379B05C085
:1041900084EF91E00E94132308950E948952A8950C
:1041A000F5CF0F931F93CF93DF93C82F01ED13E04B
:1041B000D3E0811103C0D0E008ED13E00E945C2938
:1041C000D817A1F00E940F5082E00E94352EC8013E
:1041D0000E94522D82EC93E00E94D42D0E945C2913
:1041E000D8130AC088EC90E00E94132381E0DF918D
:1041F000CF911F910F91089560E184E690E00E94B5
:10420000811FC13059F7882349F380E0F0CF68134C
:1042100010C082EF97E090933701809336018AE2D5
:104220000E94DC5087E297E090933701809336013B
:1042300008950E94B62D0895A6E0B0E0E2E2F1E212
:104240000C941455782E462E5A016901EE24EA94F6
:10425000E80E10913401FF24FA94F10E0E94182EFA
:104260000E94BE2D0E94232E22E02D8300E01E829C
:1042700081E09EEF392E310E682E611A670C582EA0
:104280005F1831E0F31204C04D814F5F4D830E8102
:10429000802E912C880C991C8A0C9B1C10E01F15F9
:1042A00028F141E0F41209C060913401809133019A
:1042B0000E947E4F8CE30E94DC5060E190E080E041
:1042C0000E94811F813009F481C0843009F45EC0EE
:1042D000853009F077C05E81511141C0EF1408F4B8
:1042E00089C0062D1E2D82E08D836AC062E0610FB9
:1042F00081E00E947E4F51E0F51629F06E81802FFB
:10430000810F0E9407218D81813089F091E049124F
:1043100017C0F401808191810E94432DC114D10402
:1043200019F0C6010E94432D80E00E94A94F32E09F
:10433000830E911C1F5FE11608F0B1CF1F2DAFCF88
:10434000C4010E94AE559C0150E040E029833A83AD
:104350004B835C83CA01B9010E946C2FDFCF1E81A1
:10436000115001134BC0002309F44BC09E81092F4B
:10437000050D9F1508F400E08E81E2E0ED838230A8
:1043800031F18736E9F40E94E81C1AC0FE81EF1271
:1043900007C0EF1438F122E02D8300E010E010C0D8
:1043A0001E811F5F832D800F18131FC01E15F8F488
:1043B000872D811B8F1508F46E820E8132E03D83BC
:1043C0001E835FCF1E8141E04D83D9CF1E810E94A5
:1043D0000F5084EF91E00E941323812F2696E1E194
:1043E0000C94305551E05D83D8CF81E07DCF91E0D2
:1043F0009D83E6CF1E2DE1E0ED83E2CFF1E0FD836A
:10440000DFCF21E02D83DCCFA9E0B0E0EAE0F2E2EB
:104410000C942255182F8EE692E09A83898381E0CE
:104420008F838BE692E09C838B8382E088878DEA82
:1044300093E09E838D8319860E940F5062EF77E090
:1044400080EF93E0123011F08BEE93E00E94002E8B
:1044500030E020E0AE014F5F5F4F61E083E00E94FB
:104460001C21FE01E80FF11D6781662319F0812FE1
:104470000E94A5232996E3E00C943E55ADE2B0E0FE
:10448000E4E4F2E20C94235585E793E09A83898370
:1044900086E08F8F89E693E09C838B8387E088A3F7
:1044A00080E592E09E838D8389E089A382E293E098
:1044B00098878F8383E18AA38AE593E09A87898727
:1044C0008BE08BA381E493E09C878B878EE08CA3A9
:1044D00089EF92E09E878D8789E28DA38FE292E03B
:1044E000988B8F8788E18EA385E893E09A8B898BE0
:1044F00081E08FA385EF93E09C8B8B8B82E088A774
:1045000080EF93E09E8B8D8B83E089A78BEE93E009
:10451000988F8F8B84E08AA78FED93E09A8F898F95
:1045200085E08BA783E093E09C8F8B8F84E18CA741
:104530008DEA93E09E8F8D8F1DA60E940F5062EF33
:1045400077E080E094E00E94002E30E020E0AE01B1
:104550004F5F5F4F61E08FE00E941C21FE01E80F7A
:10456000F11D878DAD96E2E00C943F55CF930E94EC
:104570003E229091AF0190FF05C09091B0019F7DC8
:104580009093B0018A3240F5E82FF0E0E751FA4A03
:104590000C94EC54C9E68091AF0180FF05C0809176
:1045A000B00180628093B0010E940F5081E0C11180
:1045B00035C00E94352E82EB93E00E94522D8C2F45
:1045C000CF9108950E94F226C82FE5CF0E9498242B
:1045D000FBCF82E00E940422C1E0DDCF81E0FACF70
:1045E0000E94DE23F9CF0E948B4AF6CF0E94624CD4
:1045F000F3CF0E94E245F0CF0E94BF46EDCF0E946C
:104600001F47EACF0E940F49E7CF0E94E81CE4CF82
:104610000E94DC4ED9CF0E944E4ADECF0E94352E3A
:1046200087E094E0CACF3091B101B0E0A0E0F4E0BF
:10463000880F991FAA1FBB1FFA95D1F73630C1F416
:10464000492F5A2F6B2F77274F5F5F4F6F4F7F4F49
:10465000E4E0440F551F661F771FEA95D1F748170E
:1046600059076A077B07C0F4841B950BA60BB70B91
:104670001092B1001092B20022E02093B00020937B
:10468000700023B7217F232B23BF0FB607FC30C058
:10469000789430E0E7E01CC030E0EACFA895AC01A8
:1046A000BD018F3F9105A105B10529F020F04FEF25
:1046B00050E060E070E0841B950BA60BB70B4150F7
:1046C0004093B300E093B1002091B100211108C0E4
:1046D0000097A105B10511F7311101C0F8940895B3
:1046E00023B7216023BF889523B72E7F23BFECCF4C
:1046F00031E0D0CF1F921FB61F9211241092B1004B
:104700001F901FBE1F901895EFEEF1E088EC90E02F
:10471000918380838CED90E09383828384E190E0A9
:10472000958384838FE2868317821086118608958D
:10473000EFEEF1E080E09191890F91E0E93FF90718
:10474000D1F7811101C081E008951F93CF93DF93CA
:10475000182FC0E5D4E0623011F4C5E4D4E00E9423
:1047600098238093F9014BE050E0BE018FEE91E079
:10477000123031F40E94B455DF91CF911F9108950A
:104780000E949655C091F901CC23B1F30E94982361
:10479000C81791F30E940F5082E00E94352E84EAE0
:1047A00093E00E94522D82EB93E00E94D42D80ED85
:1047B00097E00E9413230E948423DECFA4E0B0E0A0
:1047C000E4EEF3E20C94235581E0809330010E94E3
:1047D0000F5088E992E00E94C22D8091EF019091E4
:1047E000F0019C0150E040E029833A834B835C83D5
:1047F00024E04FEF69817A818B819C810E94C02ED9
:1048000084E992E00E94E12D8091F1019091F20102
:104810009C0150E040E029833A834B835C8324E091
:104820004FEF69817A818B819C810E94C02E8EE737
:1048300092E00E94E12D8091F501282F30E050E0B8
:1048400040E029833A834B835C8326E444EF69810B
:104850007A818B819C810E94C02E8BE792E00E941E
:10486000E12D8091F3019091F4019C0150E040E032
:1048700029833A834B835C8324E04EEF69817A81FC
:104880008B819C810E94C02E84EA92E00E94E12DDF
:104890008091B5019091B6019C0150E040E02983E0
:1048A0003A834B835C8326E54DEF69817A818B8166
:1048B0009C810E94C02E87E792E00E94E12D8091AA
:1048C000B7019091B8019C0150E040E029833A8300
:1048D0004B835C8326E54DEF69817A818B819C81D6
:1048E0000E94C02E8091AF0182FF05C00E94B62DAC
:1048F0008AE20E94DC5081E792E00E94E12D8091E3
:10490000F701282F880F330B440B550B29833A836B
:104910004B835C8326E54DEF69817A818B819C8195
:104920000E94712F0E94C0202496E2E00C943F5513
:10493000AEE0B0E0EEE9F4E20C94135581E00E94A1
:10494000D120882309F42AC11C86312C212C1B86F6
:104950001A8619861982512C412C712CB12CA12C4C
:10496000612CD12CC12CF12CE12C10E000E021E0D5
:104970002D8731E03E870E940F500E94182E81E45F
:104980000E94DC508D85805D0E94DC500E94232EA9
:104990000E94B62D5D85543009F440C170F4523048
:1049A00009F401C1533009F432C1513009F464C033
:1049B00081E09AC041E04E87DECF8D85853009F4D5
:1049C0005DC18630A9F78EE792E00E94C22D81E892
:1049D00092E00E94432D40E060E081E00E9419399E
:1049E00080915D01843F89F480916201909163011F
:1049F000A0916401B091650185369105A105B105CD
:104A000020F48C01A80EB91E639441E060E082E0BE
:104A10000E94193980916D01843F89F4809172015F
:104A200090917301A0917401B09175018536910543
:104A3000A105B10520F47C01A80EB91E639442E0E3
:104A400061E082E00E94193980917D01843F09F084
:104A5000AFCF8091820190918301A0918401B091A8
:104A6000850185369105A105B10508F0A1CF6C013E
:104A7000A80EB91E63949CCF84EA92E00E94C22DD6
:104A800081E792E00E94432D0E94CF399C85980FC8
:104A90009C870E940B2D8091F601282F880F330BE5
:104AA000440B550B2D833E834F83588726E54DEFEE
:104AB0006D817E818F8198850E94712F0E94B62D15
:104AC0008091F701282F880F330B440B550B2D8352
:104AD0003E834F83588726E54DEF6D817E818F8120
:104AE00098850E94712F80E011B812B81AB81BB8CF
:104AF0008823C1F00E940B2D50E040E0CA01B801AC
:104B00000E946C2F0E94B62DB0E0A0E0B701CD014D
:104B10000E946C2F0E94B62D50E040E0CA01B60101
:104B20000E946C2F3E85343671F060E188EE93E090
:104B30000E94811F882339F0823009F0D9C044E6F1
:104B40004D8754E65E879E859F5F9E87963008F46A
:104B500012CFAD85AF5FAD87A73008F42BCFBFE094
:104B60006B12C9C0C5016FE070E00E94835460936E
:104B7000F50121E02D833FE073120CC0C2016FE00C
:104B800070E00E9483547093F4016093F3014D81AF
:104B90004F5F4D8359815F3009F4AFC080E02E969E
:104BA000E2E10C942F558BE792E00E94C22D81E840
:104BB00092E00E94432D60E081E00E94132980E092
:104BC0000E94DE308C018639910518F4480E591E7A
:104BD000739460E082E00E94132980E00E94DE303E
:104BE0007C018639910518F4480E591E739461E0D2
:104BF00082E00E94132980E00E94DE306C01863939
:104C0000910508F0D5CE480E591E7394D1CE80E0A0
:104C10000E94D12080E054E65E8766CF88E992E06A
:104C20000E94432D12B881E081B99D859BB99AB944
:104C300080E00E94A3288C01A2E0A1B9B0E1BBB939
:104C4000BAB981E00E94A3287C014801880E991E10
:104C500029853A85820E931E3D8531B940E44BB9D2
:104C60004AB982E00E94A3286C01C4018C0D9D1DED
:104C70009A87898799819D5F99839ACE84E992E08A
:104C80000E94432D1BB8A1E0A2B9A1B9B4E0BAB902
:104C90000091B7011091B80180E00E94A328081B81
:104CA000190B22E022B921B930E13AB9E090B701FD
:104CB000F090B80181E00E94A328E81AF90A48019F
:104CC0008E0C9F1C280C391C44E042B941B950E4B9
:104CD0005AB9C090B701D090B80182E00E94A328D1
:104CE000C81AD90A2C0C3D1C8B858D5F8B8760CE32
:104CF00084E68E8728CF1D823ECF8B858F3009F0CA
:104D00004DCFE5E0F0E089859A85BF010E9483548C
:104D10009B01C101BF010E9483548B018091B701A7
:104D20009091B8016C01CC0CDD1CC80ED91EC901D4
:104D3000860F971FC81AD90AF12CE12CD90120EA55
:104D400039E041E050E00E940855A70196010E9419
:104D5000AB54DA01C9010596A11DB11D843C29E0BF
:104D60009207A105B10578F4BC01CD012AE030E03D
:104D700040E050E00E94AB543093F0012093EF01EB
:104D80003D813F5F3D83D80120EA39E041E050E0BA
:104D90000E940855A70196010E94AB54DA01C9018F
:104DA0000596A11DB11D803F2AE09207A105B1051E
:104DB00008F0F4CEBC01CD012AE030E040E050E044
:104DC0000E94AB543093F2012093F1013C853530C1
:104DD00009F0E4CE4D81433009F0E0CE0E94DE239D
:104DE00081E0DDCEA7E0B0E0E8EFF6E20C941355E9
:104DF00081E00E94D120811105C081E02796E2E187
:104E00000C942F55F12CE12C10E000E01F821E8243
:104E100021E02D83CC24C39438E0232E40E2342EAD
:104E200050E8D52E6AE7462E65E0562E612C712C8F
:104E300078C08D81853009F4FCC0863009F08DC0C2
:104E40008CE992E00E94432D2BB82AB880E00E94A2
:104E5000AC288E839F833BB83AB881E00E94AC288F
:104E60008C01DBB8F6C08EE10E942F288EE10E94F3
:104E70002F285C0184EA92E00E94432D0E940B2DB2
:104E8000B0E0A0E026E54DEFB501CD010E94C02EB7
:104E900080E01AB81BB8882341F10E940B2D20E056
:104EA00040E08E819F81092E000CAA0BBB0BBC0138
:104EB000CD010E94992E0E94B62D20E040E0C8014D
:104EC000012E000CAA0BBB0BBC01CD010E94992E38
:104ED0000E94B62D20E040E0C7010F2C000CAA0B69
:104EE000BB0BBC01CD010E94992E94E6C91669F056
:104EF00060E188EE93E00E94811F882331F08230C8
:104F000011F4A4E6AD8384E6C82EC394B5E0BC15C5
:104F100040F42D812F5F2D83273008F06ECFCC24F5
:104F2000C3940E940F500E94182E84E50E94DC500A
:104F30008D81805D0E94DC500E94232E0E94B62D40
:104F40003D81343009F46EC008F073CF323039F04F
:104F50003330E9F1313009F486CF81E09ACF8FE820
:104F600092E00E94C22D81E892E00E94432D2091A0
:104F7000B7013091B801ACEBB2E00E94F254A3014A
:104F800092010E94CD5449015A0194E09BB9A4E1D9
:104F9000AAB982E00E94AC287C01E818F908B4E4C0
:104FA000BAB981E00E94AC288C010819190920E1E6
:104FB0002BB930E53AB980E00E94AC2889839A8306
:104FC00089819A81881999099F838E83C6CF8AE83F
:104FD00092E00E94C22D81E892E00E94432DA090B1
:104FE000B701B090B801B694A7942BB898E29AB9DB
:104FF00082E00E94AC287C01EA18FB08A8E8AAB964
:1050000081E00E94AC288C010A191B093BB8B0EA68
:10501000BAB980E00E94AC289C012A193B093F8361
:105020002E839BCF80E00E94D12080E094E6C92EA1
:1050300030CF80EA92E00E94432D1BB82AB880E06E
:105040000E94AC288E839F833AB881E00E94AC28EE
:105050008C01DAB882E00E94AC287C017ECFA5E00A
:10506000B0E0E5E3F8E20C9423558F718064898306
:10507000898180937C00807C8D838091B4019D81A7
:10508000891729F00E949352AD81A093B4018091B9
:105090007A00806480937A0090917A00892F8074DE
:1050A00096FDFACF20E030E0A901E091B2018E1721
:1050B00000F1BD81B03809F041C0A091B501B091B7
:1050C000B6010E940855DC01CB012AE0B695A795F0
:1050D000979587952A95D1F72E2F30E050E040E044
:1050E000BC01CD010E94AB54C9012596E2E00C94AD
:1050F0003F5590917A00906490937A0090917A0055
:1051000096FDFCCF6091780070917900260F371FD3
:10511000411D511D843081F42115B4E03B0760F43A
:105120009D81903849F09091B301913029F4A98183
:10513000AF73A068A9839CCF8F5FB7CFA091B70151
:10514000B091B801BECFCF93C82F0E948A528C2F46
:105150000E942F28CF910895CF93C82F0E94885284
:105160008C2F0E942F28CF910895B0E0A0E0EBEBA8
:10517000F8E20C941D55E62E042FCDEDD1E0888386
:1051800069834A83C82ED12CC601875F9F4F0E9436
:10519000A6558E83F12CC701875F9F4F0E94A655AD
:1051A0008F8310E0C801875F9F4F0E94A6558887B4
:1051B000C6018A5F9F4F0E94A6558987C7018A5FF3
:1051C0009F4F0E94A6558A87C8018A5F9F4F0E9401
:1051D000A6558B87C6018D5F9F4F0E94A6558C8771
:1051E000C7018D5F9F4F0E94A6558D87C8018D5FB7
:1051F0009F4F0E94A6558E87C601805090400E9406
:10520000A6558F87C701805090400E94A655888B75
:10521000C801805090400E94A655898BCDB7DEB75B
:10522000E8E00C94395543E0461B481B0E94B52822
:105230000895EDEDF1E04581648183810E94B528F8
:105240000895EDEDF1E08081838381818483828103
:1052500085830895CF93DF930E94132911B880911D
:10526000E3018BB99091E401892B8AB98091EC011B
:105270000E94A328EC018091ED010E942F28AC012F
:105280002091B7013091B80136952795C9014E9705
:105290008C179D0760F4225E3F4FC217D30738F486
:1052A0008417950720F481E04217530708F080E047
:1052B0001AB8DF91CF910895CF9361E080E00E940A
:1052C0002A29C82F62E080E00E942A29C80F62E0E4
:1052D00081E00E942A298C0FCF9108950F931F938C
:1052E000CF93DF93D82FC62F11B812B81AB81BB8B6
:1052F0000E9413298091E90181B98091ED010E94FA
:105300002F288C018091EA0181B98091EC010E94E3
:105310002F280817190720F46D2F8C2F0E941329AE
:105320008091E90181B98091E4018AB9C2E3809159
:10533000ED010E942F289C01203981E0380740F4BC
:1053400081B19091EA01892B81B92832310538F079
:10535000C15029F084E690E00E941323E8CF11B8F1
:105360001AB8DF91CF911F910F910895A6E0B0E098
:10537000ECEBF9E20C94195511B812B81BB88CEF8C
:105380008AB980E00E942F289A83898381E00E9455
:105390002F289C838B8382E00E942F289E838D83FD
:1053A000912C02E018E2FF24F394AA24A394B12CD8
:1053B0000F5F033009F400E0C02ED12C892D90E05E
:1053C000002E02C0959587950A94E2F780FDF0CFF4
:1053D000C601805090400E94A655E82E0E942F28BA
:1053E0009C01F601EE0FFF1F41E050E04C0F5D1FE6
:1053F000E40FF51F808191812817390770F43183FC
:105400002083412F4F19550B443151051CF41B3E8D
:1054100008F41C5EFF24F39407C02A30310518F409
:10542000183209F410E5F39423303105D0F5C501A5
:105430000C2C01C0880F0A94EAF7982A87E0981686
:1054400051F11F15D0F581E0809310018093110177
:1054500000931601C6018D5F9F4F0E94A65521B192
:10546000982F9095922391B9C6018A5F9F4F0E9411
:10547000A655182FC601875F9F4F0E94A6559AB167
:10548000182B109519231AB98E2D0E942F2890934E
:105490001801809317011AB811B82696ECE00C9405
:1054A00035552032334050F681B0C6018D5F9F4F95
:1054B0000E94A655882A81B8C1CFA89582E390E0C2
:1054C0000E94132375CFCF93C82FC0959BB160FF67
:1054D00011C0982B9BB99AB1892B8AB963FF0CC074
:1054E0000E948E528AB18C238AB98BB18C238BB9DE
:1054F000CF9108959C23EECF0E948952F3CFB0E064
:10550000A0E0E5E8FAE20C941E559C01613009F434
:1055100047C0623009F44DC090E080E06330D9F5B7
:10552000ECE4F1E00EE110E0C9E1D0E088EC90E0BD
:105530002817390708F446C0A901481B590BCA01AE
:10554000BE010E948354DC2ED81A6017110611F098
:1055500008F0B8017727660F771F8F01060F171F16
:10556000C8010E94AE557C01C80102960E94AE554A
:105570009C01E81AF90ADE9CA001DF9C500D112461
:10558000CE0196958795840F951FBE010E94835486
:10559000C901860F971FCDB7DEB7E7E00C943A55E7
:1055A000ECE8F1E007E010E0C2E3D0E088EE93E041
:1055B000BFCFEEE9F1E00CE210E0C9E1D0E08CE20F
:1055C00091E0B6CF90E080E0BBCFABE0B0E0EBEE97
:1055D000FAE20C9413556B017C01142F29832831B6
:1055E00009F4FBC060F4263009F401C12C3009F441
:1055F00003C1B12C8B2D2B96E2E10C942F55298100
:105600002036B9F799E2892E90E0992EEAC0C701B9
:10561000B601A30192010E94AB5469017A011F5F98
:1056200030EAC31636E8D30631E0E306F10478F732
:1056300040E1C41647E2D406E104F10408F4E1C0F5
:10564000B601C7016D837E838F8398872AE030E09F
:1056500040E050E00E94AB542901B901CA0119870A
:105660001F5F2D813E814F81588520313742410592
:10567000510540F7312C1B861A86212CAA84BB8445
:10568000C4010E94AE558A879B8781E0820D2A85DE
:105690003B852415350570F432E0830E911C322CC5
:1056A00049814813B8C0AA84BB84212C88EE93E0BA
:1056B0009B878A879501A4E6B0E00E94F254698333
:1056C0007A838B839C83402E512C712C612CA02FCC
:1056D000B0E09B01AC010E94085528EE33E040E0A9
:1056E00050E00E94AB5489819A81AB81BC81280F24
:1056F000391F4A1F5B1F2C153D054E055F0508F439
:105700008CC0212F023340F0C5016AE070E00E9496
:1057100083545B0129852E5FC501B0E0A0E0809332
:10572000D3019093D401A093D501B093D6012093D7
:10573000D70181E0830D8093BE01BB24B3942A85F9
:105740003B85A4E6B0E00E94F25469837A838B83A0
:105750009C83A30192010E94595428EE33E040E05B
:1057600050E00E94AB5489819A81AB81BC81821B3D
:10577000930BA40BB50BC816D906EA06FB0608F472
:1057800039CFAA85BB85A83EB34031F419851E5F89
:1057900024E630E03B872A87023348F08A859B85E0
:1057A0006AE070E00E9483547B876A871F5F2394BE
:1057B0004A855B85CA01B0E0A0E0B11030C080939B
:1057C000D3019093D401A093D501B093D601109347
:1057D000D7012092BE01B3940DCF49EE842E40E054
:1057E000942E8AE0482E512C612C712C19CF31E374
:1057F000832E31E0932EF5CF29E1822E21E0922EE7
:10580000F0CFAAE0B0E0A70196010E9408556B0115
:105810007C0111500DCF282E31CFB12C90CF809329
:10582000D8019093D901A093DA01B093DB011093D2
:10583000DC012092BF01CFCFCF93DF939091100175
:10584000913009F4A6C0A8950E94B5281BB8809194
:10585000E4018AB98091E90181B982B960E180915E
:10586000E5010E94632A8091ED010E94A328EC01CA
:105870008091E4019091E501892B8AB98091ED0135
:105880000E94A3289C018091E4018AB92C173D074E
:1058900020F42530310508F4E901C13D23E0D207A9
:1058A00008F161E18091E5010E94632A8091ED0198
:1058B0000E94A328EC018091E5018BB99091E4014D
:1058C000892B8AB98091ED010E94A3289C011BB805
:1058D0008091E4018AB92C173D0720F42530310569
:1058E00008F4E901C031D10508F056C080911201D9
:1058F000811143C08091E4018AB91BB88091E9010C
:1059000081B982B90E948A528091E4019091E501A7
:10591000892B8AB98091ED010E94A3288F359D4083
:1059200020F0BE0182E00E94EC3D809112018111C5
:1059300024C08091EA0181B912B88091E30190916D
:10594000E501892B8AB98BB98091EC010E94A328CB
:105950008034964060F40E94E541811108C0809136
:105960001001813221F0BE0181E00E94EC3D809166
:105970001201811102C00E94D5428091100188233A
:1059800011F08A30F1F40E94A53111B812B81AB89A
:105990001BB8DF91CF91089580911201811103C04E
:1059A000CE010E94044080911201C13D93E0D907CD
:1059B00008F49CCF811102C00E9484420E94353BB2
:1059C000DCCF8F3111F78091110184FFDECF0E946F
:1059D000363CDBCF809113018823E1F090911201D6
:1059E00090FD18C091FD04C0909110019E3190F47B
:1059F00080931001809148018093BE0180914901FC
:105A00008093BF0180914A018093C00180911A0167
:105A1000809319010895CF936091320180913401F0
:105A2000861319C0C0913001C0FD0E94C020C1FF83
:105A30000EC0C0913401C23028F462E081E00E94BF
:105A40007E4F07C08C2F0E94A94FC150F4CF0E94F7
:105A50000F50CF9108956F5FF1CFCF9380913201B6
:105A6000C0913401C8130DC00E94C0208C2F0E9429
:105A7000A94F6C2F81E00E947E4F84EF91E00E943D
:105A80001323CF910895CF93DF93EC01CE010E94B1
:105A9000A655811103C0DF91CF9108950E94DC507B
:105AA0002196F4CFEF92FF920F931F93CF93DF9342
:105AB000182F092FC82FD92FFC2EEC2EE11ACE015A
:105AC0000E94A655811117C09091330181E09E1567
:105AD00028F0812F8C1B890F86958F5F6091320192
