:100000000C9465120C9482120C9482120C9482123D
:100010000C9482120C9482120C9482120C94821210
:100020000C9482120C94BA230C9482120C948212B7
:100030000C9482120C9482120C9482120C948212F0
:100040000C9482120C9482120C9482120C948212E0
:100050000C9482120C9482120C9482120C948212D0
:100060000C9482120C9482120C9482120C948212C0
:10007000110A0611060A050A0609060A050A0609F2
:10008000060A090A06050A06050A0605060A052AD9
:1000900026052A26092A26090A0600000000000073
:1000A000000000110A06000000100000C01100004E
:1000B000201200002010000020100000201000007E
:1000C00020120000C011000000100000000878009D
:1000D0000004880006028800060178008600880077
:1000E0004600880026007800160000000E00000080
:1000F0000600FCFF07000000060000000E000000E4
:1001000016000000260200004603000086030000DF
:10011000C6030000E6030000000400000008000021
:10012000E01300002010000020100000E01100008B
:100130002010000020100000E0130000001000005C
:100140000000000000100000E0130000201000007C
:1001500020100000E011000020100000201000001E
:10016000E013000000100000000878004004880040
:10017000C6028800C6017800C6038800C60788004A
:1001800026007800160000000E0000000600FCFFAC
:1001900007000000060000000E000000160000002E
:1001A0002600000046000000860000000601000056
:1001B000060200000004000000080000C01100005A
:1001C000201200002010000020100000201000006D
:1001D00020120000C011000000100000000000000C
:1001E00000100000E01000002011000020120000AC
:1001F000201200002012000020110036E01000360E
:1002000000100036001000F6FF1F00360004003614
:100210000004003600040006000400060004003656
:1002200004040036863F0036070400F63F0E003611
:10023000271F0036A63F383624044406200404064F
:10024000200464362004443620044436200438F662
:10025000FF1F0036001000360010FE37C0110000EE
:100260002012000020100000C01100000012000049
:1002700020120000C011000000000000001000006B
:10028000C01100002012000020100000C01100006A
:10029000001200002012FE37C01100360010003698
:1002A000001038F6FF1F443620040436200464365C
:1002B0002004440620044406200438362104003675
:1002C000A33F0036270400F63F0E0036071F003616
:1002D000833F0036010400060004000600040036D7
:1002E0000004003600040036000400F6FF1F00364C
:1002F0000010003600100036E01000002011000051
:100300002012000020120000201200002011000026
:10031000E01000000000000000100000E0100000ED
:100320002011000020120000201200002012000006
:1003300020110036E010003600100036001000F6E4
:10034000FF1F0036000400360004003600040036AB
:10035000000400360004003604040036863F0036F0
:10036000070400F63F0E0036271F0036A63F38363A
:100370002404443620040436200464362004443621
:1003800020044436200438F6FF1F003600100036E3
:100390000010FE37C01100002012000020100000E5
:1003A000C01100000012000020120000C011000067
:1003B0000000000000100000C0110000201200002A
:1003C00020100000C0110000001200002012FE37B3
:1003D000C011003600100036001038F6FF1F4436FA
:1003E00020040436200464362004443620044436B5
:1003F0002004383621040036A33F0036270400F6D7
:100400003F0E0036071F0036833F003601040036DA
:1004100000040036000400360004003600040036F4
:10042000000400F6FF1F00360010003600100036F2
:10043000E010000020110000201200002012000037
:100440002012000020110000E01000000000000059
:1004500000103800C0114400201204002010640075
:10046000C011440000124400201238C2C01100C65E
:10047000001000CE0010FEFFFF1F00CE000000C6DF
:10048000000000C2000000C0000000C0000000C06A
:10049000000000C0000000C0000000C0000000C05C
:1004A000000000C0000000C0000000C0000000C04C
:1004B000000000C0000000C0000000C0FF1F00C01E
:1004C000001000C0001000C0E0100000201100006B
:1004D0002012000020120000201200002011000055
:1004E000E0100000001000000000000000100000FC
:1004F000E010000020110000201200002012000077
:1005000020120000201100C0E01000C0001000C048
:10051000001000C0FF1F00C0000000C0000000C0AD
:10052000000000C0000000C0000000C0000000C0CB
:10053000000038C0000044C0000004C0000064C0D7
:10054000000044C0000044C0000038C8000000CCD7
:10055000000000CE0000FEFFFF1F00CE001000CC08
:10056000001000C8C0110000201200002010000080
:10057000C01100000012000020120000C011000095
:1005800000100000000000000E100000111000001C
:100590000110000001100000011000001111000006
:1005A0000E0B000000070000000F00800D1F0080F0
:1005B0008D0000807D0000800D0000800D00008017
:1005C00001000080010000800D0000800D003880D7
:1005D0003D0044804D0004808D0064800100448013
:1005E000010044800D0038800D0000807D040080F3
:1005F0008D06FEFF0D07000080070000C007000009
:100600001F08000001100000011000000F10000082
:1006100001100000011000001F1000000010000079
:10062000000038001F104400011004000110640095
:100630000F10440001104400011138001F0B00008E
:1006400000070000000FFEFF0D1F00808D000080DE
:100650007D0000800D0000800D0000800100008002
:10066000010000800D0000800D0000803D00008032
:100670004D0000808D00008001000080010000809E
:100680000D0000800D0000807D0400808D0600803C
:100690000D07000080070000C00700000E080000E2
:1006A00011100000011000000110000001100000F6
:1006B000111000000E1000000010000000000000EB
:1006C00010000000100700009008000090080000D3
:1006D000900F0000900800009008000090080000B3
:1006E00010000000100000001000000010000000CA
:1006F000100000FCFF7F00F8FF3F00F0FF1F00E04C
:10070000FF0F00C0FF070080FF030000FF01000093
:10071000FE0000007C00380038004400100004FC9B
:10072000FF7F64FCFF7F4400180044001400380081
:1007300012000000110000801007FE7F90080000EA
:100740009000000090000000900000009008000061
:100750001007000010000000000000001000008ED4
:1007600011000051120000111200001F1100009131
:1007700010000051100000D1130000001000000014
:100780001000000010000000100000FFFF3F00FC00
:100790001F0200FC1F0700F80F0700F88F0F00F082
:1007A000870F00F0C71F00E0C31F00E0E33F00C059
:1007B000E13F38C0F17F4480F07F04FCFFFF64809C
:1007C00010004440100044201000381010000008B1
:1007D000100000041047FE039068000090480000DD
:1007E000904F0000904800009048000090E8000002
:1007F00010000000000000001000000010070000C2
:100800009008000090080000900FFE1F9008002044
:100810009008004090083880100044001100040047
:100820001200640014004400180044FCFF7F38F8F4
:10083000FF3F00F0FF1F00E0FF0F00C0FF07008038
:10084000FF030000FF010000FE0000007C0000002C
:1008500038000000100000FCFF7F00FCFF7F00005C
:100860001000000010000000100000001000000048
:1008700010070000900800009000000090000000A9
:100880009000000090080000100700001000000019
:1008900000000000001000008F1100005112000045
:1008A000111200000F11000091101E0051102000C5
:1008B000CF134000001080C8001000CD00103ECEC5
:1008C000FF1F02CF000082CF00001ED0000002E018
:1008D000000002C000003EC0000000C0000000C0D8
:1008E000000000C0000000C0000000C0000000C008
:1008F000000000C0000000C0000000C0FF1F00C0DA
:10090000001000C000100000001000001E110000C8
:10091000A2110000221100001E110000221100008F
:10092000221100009E1300000010000000000000D3
:100930000000000000000000000000FE010080FF39
:100940000700C0FF0F00E0FF1F00F0013E00F0FCB9
:100950003C0078027800780178017801780178010C
:1009600078010000780100003C010000BE0000009A
:100970009F0000804F0000C0270000E0130000F03F
:10098000090000F80400007C0200007C0100007CEB
:100990000100007C01000000010000F801000000DF
:1009A00000000000000000380000007C0000007C17
:1009B0000100007C01000038010000800000007888
:1009C0000000000000000000000000001000000017
:1009D00090080000900400009002000090010000C8
:1009E0009002000090040000900800001000000435
:1009F0001000000410000004100000FCFF7F00FC49
:100A0000FF7F000010400000384000007C400000E4
:100A1000FE000000FF010080FF0300C0FF0700E0B0
:100A2000FF0F00F0FF1F00F8FF3F00FCFF7F0000FA
:100A30001000000010000000100000001000000076
:100A4000100700009008000090080000900F0000C0
:100A500090080000900800009008000010000000BE
:100A60000000000000000000000000000000000086
:100A70000100000001000000010000000100000072
:100A80000100000001000000010000000100000062
:100A900001000000010080FFFF0180FFFF01000056
:100AA000000000000000F0FFFF0FF0FFFF0FF0FF5D
:100AB000FF0FF0FFFF0FF0FFFF0FF0FFFF0FF0FF42
:100AC000FF0F000000000000000080FFFF0180FF1A
:100AD000FF01000001000000010000000100000013
:100AE0000100000001000000010000000100000002
:100AF00001000000010000000100000000000000F3
:100B0000000000008010000080100000E0130000D2
:100B10008010000080100000001000C07F10004016
:100B20004010007CC01F0044401038C47F104804AF
:100B300000108804001088E47F1088E47F1048E4E7
:100B4000FF1F38E47F0000E47F0000E47F00FCFF2B
:100B50007F0000E07F0000E07F0000E07F0000E019
:100B6000FF1F00E07F1000E07F1000000010000079
:100B70000010000000100000001000000010000035
:100B80000010000000100000001000000010000025
:100B900000100000E0130000001000000000FF0142
:100BA0000203040506076F70717273747576FFFF98
:100BB000FFFFFFFFFFFFFFFFFFFFFFFFFFFF101122
:100BC00012131415161718191A1B1C1D1E1F20218D
:100BD00022232425262728292A2B2C2D2E2F30317D
:100BE00032333435363738393A3B3C3D3E3F40416D
:100BF00042434445464748494A4B4C4D4E4F50515D
:100C000052535455565758595A5B5C5D5E5F60614C
:100C100062636465666768696A6B6C6D6EFFFFFF8F
:100C2000FFFFFFFFFFFFFFFFFFFFFFFFFFFFFFFFD4
:100C3000FFFFFFFFFFFFFFFFFFFFFFFFFFFFFFFFC4
:100C4000FFFFFFFFFFFFFFFFFFFFFFFFFFFF0FFFA4
:100C5000FFFFFF05FFFFFFFFFFFFFFFFFFFFFFFF9E
:100C6000FFFF08FFFFFFFFFFFFFFFFFFFFFFFFFF8B
:100C7000FFFFFFFF09FFFFFFFFFF0AFFFF0BFFFF63
:100C8000FFFF0CFFFFFFFFFFFFFFFFFFFFFFFFFF67
:100C9000FFFFFFFF0DFFFFFFFFFF0EFFFFFF000045
:100CA0000000000000000000000000000000000044
:100CB0000000000000000000000000000000000034
:100CC0000000000000000000000000000000000024
:100CD000000000000000000004700C701C703C70EC
:100CE0007C70FC70FC71FC73FC77FFFFFFFFFC77EE
:100CF000FC73FC71FC707C703C701C700C70047098
:100D00000000000000000000000000000E200E3077
:100D10000E380E3C0E3E0E3F8E3FCE3FEE3FFFFFA5
:100D2000FFFFEE3FCE3F8E3F0E3F0E3E0E3C0E3895
:100D30000E300E2000000000000000000000000047
:100D40003C3C3C3C3C3C3C3C3C3C3C3C3C3C3C3CE3
:100D50003C3C3FFC3FFC3C3C3C3C3C3C3C3C3C3C4D
:100D60003C3C3C3C3C3C3C3C0000000000000000A3
:100D700000000000C007E00F301818300C600C6055
:100D800006C006C006C006C00C600C6018303018E3
:100D9000600C628C7EFC7EFC000000000000000005
:100DA0000000000000000000000000000000000043
:100DB0001C381C381C381C381C381C381C381C3893
:100DC0001C381C383C3C7C3EFC3BDC7B1C001C0083
:100DD0001C001C001C0000000000000000000000BF
:100DE000FEFFFEFF060006000600060006000700E4
:100DF000070006000600060006000600FEFFFEFFD4
:100E000000000000000000000000000000000000E2
:100E100000000000FF7FFF7F006000600060006056
:100E2000006000E000E000600060006000600060C2
:100E3000FF7FFF7F00000000000000000000300C7A
:100E4000300C000000000000C001C003E003600798
:100E500060077006300E380E381C181CFC3FFC3F33
:100E60000E380E700E7007E0000000000000000059
:100E70000000300C300C000000000000E007F00F14
:100E8000381C1C381C380E700E700E700E700E70F0
:100E90000E701C381C38381CF00FE00700000000F2
:100EA0000000000000006018601800000000000052
:100EB0001C701C701C701C701C701C701C701C70D2
:100EC0001C701C701C701C703C783838F01FE00FD0
:100ED000000000000000000000000000F003F80720
:100EE0003C0E1C0E1C0E1C061C079C039C039C0342
:100EF0009C071C0F1C1E1C3C1C781C701C709C70DA
:100F00009C3F1C1F000000000000000000000000CB
:100F100000000000600C600C00000000E007F80F0B
:100F2000181E001C001CE01FF01F381C1C1C1C1C81
:100F30001C1C3C1EF87BF078000000000000000044
:100F40000000000000000000300630060000000035
:100F5000E003F80F3C1E1C1C0E380E380E380E38FD
:100F60000E380E381C1C3C1EF80FE0030000000079
:100F70000000000000000000000000003006300605
:100F8000000000001C381C381C381C381C381C3869
:100F90001C381C381C381C381C3C3C3EF83BF038D4
:100FA00000000000000000000000000000008003BE
:100FB000C007600C600C600CC007800300000000DC
:100FC0000000000000000000000000000000000021
:100FD0000000000000000000000000000000000011
:100FE0000000000000000000000000000000000001
:100FF00000000000000000000000000000000000F1
:1010000000000000000000000000000000000000E0
:101010000000000000008003800380038003800341
:1010200080038003800380038003800380038003A8
:1010300080030000000080038003800300000000A4
:101040000000000000000000380E380E380E380E88
:10105000380E100410040000000000000000000022
:101060000000000000000000000000000000000080
:1010700000000000000000000000000000008031BF
:101080008031C018C018C018C018FC7FFC7F600CED
:1010900060063006FE3FFE3F1803180318031803CE
:1010A0008C018C0100000000000000000000000323
:1010B0000003C01FF03F7023380338033803780360
:1010C000F003E0038007001F001F003B003B003BD4
:1010D000003B181BF81FE00F000300030000000096
:1010E0000000000000003CC06660C330C318C31895
:1010F000C30CC30666033C038001C03CC06660C3EA
:1011000030C318C318C30CC30666033C00000000BC
:1011100000000000000000000000E003F007380EAF
:10112000380E380E38067007F001F800FCE0CEE10A
:10113000C7E387630767077E0F3E1E3CFC7FF0F323
:10114000000000000000000000000000C001C0011D
:10115000C001C001C001800080000000000000004C
:10116000000000000000000000000000000000007F
:10117000000000000000000000000000000000006F
:101180000018001E000F8003C001E000E000E00036
:1011900070007000700070007000700070007000CF
:1011A000E000E000E000C0018003000F001E001816
:1011B000000000000C003C007800E000C00180034B
:1011C00080038003000700070007000700070007EF
:1011D00000070007800380038003C001E00078005F
:1011E0003C000C000000000000008003800380032E
:1011F000981B7C3E300C4002E007700E381C200427
:1012000000000000000000000000000000000000DE
:1012100000000000000000000000000000000000CE
:1012200000000000000000008001800180018001BA
:1012300080018001FE7FFE7F8001800180018001AE
:10124000800180010000000000000000000000009C
:10125000000000000000000000000000000000008E
:10126000000000000000000000000000000000007E
:10127000C003C003C003C003000380038001C0009B
:10128000000000000000000000000000000000005E
:1012900000000000000000000000F81FF81F000020
:1012A000000000000000000000000000000000003E
:1012B000000000000000000000000000000000002E
:1012C000000000000000000000000000000000001E
:1012D0000000000000000000C003C003C003C00302
:1012E000000000000000000000000000006000306E
:1012F000003000180018000C000C00060006000367
:10130000000380018001C000C00060006000300068
:101310003000180018000C000C000600000000004F
:101320000000E003F007380E1C1C1C1C0E380E38A1
:101330000E380E380E380E380E380E380E381C1C8B
:101340001C1C380EF007E003000000000000000045
:101350000000000000000003E003FC038C03800396
:101360008003800380038003800380038003800365
:101370008003800380038003FC7FFC7F000000006B
:1013800000000000000000000000F003FC070C0E4D
:10139000001C001C001C001C000E000E0007800337
:1013A000C001E0007000300038001C00FC1FFC1F72
:1013B0000000000000000000000000000000F0033A
:1013C000F80F081E001C001C001C000C0006E003A7
:1013D000E007000F001E001C001C001C001E080F70
:1013E000F807F80300000000000000000000000003
:1013F0000000000E000F800F800FC00EE00E600E88
:10140000300E180E180E0C0E060EFE7FFE7F000E1C
:10141000000E000E000E000E000000000000000094
:10142000000000000000F03FF03FF03F30003000CF
:10143000300030003000F003F00F001E003C003898
:1014400000380038003C101EF00FF00300000000D0
:1014500000000000000000000000801FE03FF020BE
:101460007000380038001C009C0FDC1F7C3C3C786E
:101470001C701C701C70387038387038F01FC00732
:101480000000000000000000000000000000F83F25
:10149000F83FF83F00180018000C000C000600028E
:1014A000000380018001C000C00060006000700087
:1014B00030003000000000000000000000000000CC
:1014C0000000C007F00F781E381C381C381C780C40
:1014D000F00FE003F00F381F181E1C3C1C381C389E
:1014E0001C38381CF00FE00700000000000000006E
:1014F000000000000000C007F01F381C38381C38FE
:101500001C701C701C703C78787CF077E073007065
:1015100000380038001C081EF80FF003000000001F
:1015200000000000000000000000000000000000BB
:1015300000000000C003C003C003C003000000009F
:101540000000000000000000C003C003C003C0038F
:10155000000000000000000000000000000000008B
:101560000000000000000000C003C003C003C0036F
:10157000000000000000000000000000C003C003E5
:10158000C003C003000380038001C000000000000E
:10159000000000000000000000000000004000709B
:1015A000003C000FC003F0003C003C00F000C00312
:1015B000000F003C00700040000000000000000030
:1015C000000000000000000000000000000000001B
:1015D000000000000000FE7FFE7F00000000000011
:1015E000FE7FFE7F00000000000000000000000001
:1015F00000000000000000000000000000000000EB
:101600000000000002000E003C00F000C003000FCC
:10161000003C003C000FC003F0003C000E00020044
:101620000000000000000000000000000000F807BB
:10163000FC1F0C3C0C3800380038001C001E000F4A
:1016400080078003C001C001C00100000000C0018C
:10165000C001C00100000000000000000000000008
:101660000000C00FE01F703818301C3E0C318E3166
:10167000C630C630C638C638C63CC6348EF78CF382
:101680001C003808F00FC007000000000000000038
:10169000000000000000000000000000C001C003C6
:1016A000E003600760077006300E380E381C181C07
:1016B000FC3FFC3F0E380E700E7007E0000000008B
:1016C000000000000000000000000000000000001A
:1016D000FC07FC0F1C1E1C1C1C1C1C0EFC07FC0722
:1016E0001C1E1C3C1C381C381C381C3CFC1FFC07F6
:1016F00000000000000000000000000000000000EA
:1017000000000000C01FF03F78303C001C000E00BD
:101710000E000E000E000E000E001C003C00782093
:10172000F03FC01F000000000000000000000000AB
:101730000000000000000000FC07FC0F1C3C1C38EF
:101740001C781C701C701C701C701C701C701C3869
:101750001C381C1EFC0FFC030000000000000000F1
:10176000000000000000000000000000F83FF83F0B
:1017700038003800380038003800F81FF81F3800EB
:101780003800380038003800F87FF87F000000008B
:101790000000000000000000000000000000000049
:1017A000F87FF87F38003800380038003800F83FFC
:1017B000F83F38003800380038003800380038006A
:1017C0000000000000000000000000000000000019
:1017D00000000000C01FF03F78303C001C000E00ED
:1017E0000E000E000E3F0E3F0E381C383C38783885
:1017F000F03FC01F000000000000000000000000DB
:1018000000000000000000001C381C381C381C3888
:101810001C381C381C38FC3FFC3F1C381C381C385A
:101820001C381C381C381C38000000000000000068
:10183000000000000000000000000000FC1FFC1F72
:10184000C001C001C001C001C001C001C001C00190
:10185000C001C001C001C001FC1FFC1F000000004E
:101860000000000000000000000000000000000078
:10187000F80FF80F000E000E000E000E000E000E06
:10188000000E000E000E000E000E0407FC03FC010B
:101890000000000000000000000000000000000048
:1018A000000000001C781C3C1C1E1C0F1C079C0325
:1018B000DC01FC00DC01DC039C071C0F1C1E1C3C33
:1018C0001C781CF800000000000000000000000070
:1018D0000000000000000000380038003800380028
:1018E0003800380038003800380038003800380038
:1018F00038003800F83FF83F00000000000000000A
:101900000000000000000000000000000E381E3C37
:101910001E3C1E3C36363636363666326633663305
:10192000C631C631C6310630063006300000000030
:1019300000000000000000000000000000000000A7
:101940001C301C303C307C307C30FC30EC31CC31F5
:10195000CC338C370C3F0C3E0C3E0C3C0C380C3816
:101960000000000000000000000000000000000077
:1019700000000000E007F00F381C1C381C380E7007
:101980000E700E700E700E700E701C381C38381CE5
:10199000F00FE00700000000000000000000000061
:1019A0000000000000000000F81FF83F3878387091
:1019B000387038703878383CF81FF807380038002D
:1019C0003800380038003800000000000000000037
:1019D000000000000000000000000000E007F00F21
:1019E000381C1C381C380E700E700E700E700E7085
:1019F0000E701C381C38381CF00FE007001E0078F1
:101A000000F00040000000000000000000000000A6
:101A1000FC07FC0F1C1E1C1C1C1C1C1C1C0EFC07A9
:101A2000FC039C071C071C0F1C1E1C3C1C381C784C
:101A300000000000000000000000000000000000A6
:101A400000000000E00FF81F3C181C001C003C00C8
:101A5000F800F007C01F003E0038003800380C1CAA
:101A6000FC1FF00700000000000000000000000064
:101A70000000000000000000FF7FFF7FC001C001E8
:101A8000C001C001C001C001C001C001C001C0014E
:101A9000C001C001C001C001000000000000000042
:101AA0000000000000000000000000001C701C701E
:101AB0001C701C701C701C701C701C701C701C70C6
:101AC0001C701C703C783838F01FE00F00000000DC
:101AD0000000000000000000000000000000000006
:101AE00007E00E700E701C701C383C383838381CFB
:101AF000701C700CE00EE00EE007C007C00780030A
:101B000000000000000000000000000000000000D5
:101B10000000000003C003C007C08661C663C6633F
:101B2000C663C6634E766C366C366C362C3E3C3CD7
:101B30003C1C3C1C000000000000000000000000F5
:101B400000000000000000001EE03C707838781CA7
:101B5000F00EE007C003C003C007E007600F301EAF
:101B6000183C1C380E7807F0000000000000000050
:101B700000000000000000000000000007E00E7000
:101B80001C301C18381C780E7007E003E003C001FD
:101B9000C001C001C001C001C001C00100000000BF
:101BA0000000000000000000000000000000000035
:101BB000FC3FFC3F0038001C000E00078003800142
:101BC000C000E000700038001C000E00FE3FFE3F29
:101BD000000000000000000000000000C03FC03F07
:101BE000C001C001C001C001C001C001C001C001ED
:101BF000C001C001C001C001C001C001C001C001DD
:101C0000C001C001C001C001C03FC03F00000000D2
:101C100006000C000C0018001800300030006000B6
:101C20006000C000C00080018001000300030006C6
:101C30000006000C000C0018001800300030006096
:101C400000000000FC03FC0380038003800380038A
:101C5000800380038003800380038003800380036C
:101C6000800380038003800380038003800380035C
:101C7000FC03FC03000000000000000100018003E1
:101C80008003C003C006E006600C300C3018181842
:101C900018180C300C300660000000000000000036
:101CA0000000000000000000000000000000000034
:101CB0000000000000000000000000000000000024
:101CC0000000000000000000000000000000000014
:101CD00000000000FFFFFFFF000000000000C00147
:101CE000800300070000000000000000000000006A
:101CF00000000000000000000000000000000000E4
:101D000000000000000000000000000000000000D3
:101D100000000000000000000000000000000000C3
:101D2000E007F80F181E001C001CE01FF01F381CF5
:101D30001C1C1C1C1C1C3C1EF87BF07800000000C6
:101D400000000000000000001C001C001C001C0023
:101D50001C001C009C07DC1F7C1C3C381C381C38F9
:101D60001C381C381C381C381C1C3C1EFC0FCC07B3
:101D70000000000000000000000000000000000063
:101D80000000000000000000C01FF03F7820380075
:101D90001C001C001C001C001C003C003800F8202B
:101DA000F03FC01F00000000000000000000000025
:101DB000007000700070007000700070C073F07FE1
:101DC000787C38701C701C701C701C701C701C702F
:101DD0003C78387CF077E0730000000000000000E1
:101DE00000000000000000000000000000000000F3
:101DF000C007F00F781C38381C381C38FC3FFC3FFB
:101E00001C001C0038007820F03FC01F00000000BC
:101E1000000000000000000000FF80FFC003C001C0
:101E2000C001C001FC7FFC7FC001C001C001C00136
:101E3000C001C001C001C001C001C001C001C0019A
:101E40000000000000000000000000000000000092
:101E50000000000000000000C073F07F787C387044
:101E60001C701C701C701C701C701C703C78387CC2
:101E7000F077E07300700038183CF81F000700008E
:101E80001C001C001C001C001C001C001C0FDC1F84
:101E90007C3C3C381C381C381C381C381C381C381E
:101EA0001C381C381C381C380000000000000000E2
:101EB0000000000080038003800300000000000099
:101EC000FC03FC0380038003800380038003800302
:101ED00080038003800380038003800300000000F0
:101EE0000000000000000000000E000E000E0000C8
:101EF00000000000F80FF80F000E000E000E000E9C
:101F0000000E000E000E000E000E000E000E000E61
:101F1000000E000E0407FC07F8010000380038002E
:101F20003800380038003800383C381E380E380F7A
:101F3000B807B803F803B803B807380F380E381ECF
:101F4000383C38780000000000000000000000006D
:101F5000F807F80700070007000700070007000759
:101F60000007000700070007000700070007000739
:101F70000007000700070007000000000000000045
:101F80000000000000000000000000000000000051
:101F9000CE31EE79FE7F9E779E738E738E738E7335
:101FA0008E738E738E738E738E738E73000000002B
:101FB0000000000000000000000000000000000021
:101FC000000000001C0FDC1F7C3C3C381C381C3817
:101FD0001C381C381C381C381C381C381C381C3861
:101FE00000000000000000000000000000000000F1
:101FF0000000000000000000E003F80F3C1E1C1C65
:102000000E380E380E380E380E380E381C1C3C1E9A
:10201000F80FE003000000000000000000000000D6
:102020000000000000000000000000009C07DC1F12
:102030007C1C3C381C381C381C381C381C381C389C
:102040001C1C3C1EFC0F9C071C001C001C001C00E0
:102050001C00000000000000000000000000000064
:10206000E039F83F3C3E1C380E380E380E380E383A
:102070000E380E381E3C1C3EF83BF0380038003855
:1020800000380038003800000000000000000000A8
:1020900000000000703E703FF031F03070007000C2
:1020A00070007000700070007000700070007000B0
:1020B0000000000000000000000000000000000020
:1020C0000000000000000000E00FF01F7810380052
:1020D0003800F801F007801F003C00380038183C39
:1020E000F81FF007000000000000000000000000E2
:1020F0000000000000000000E000E000FC3FFC3FAA
:10210000E000E000E000E000E000E000E000E000CF
:10211000E000E001C03F803F000000000000000040
:1021200000000000000000000000000000000000AF
:102130001C381C381C381C381C381C381C381C38FF
:102140001C381C381C3C3C3EF83BF03800000000BA
:10215000000000000000000000000000000000007F
:10216000000000001E701C381C383C383818381C21
:10217000701C700CE00EE00EE006C007C007800384
:10218000000000000000000000000000000000004F
:10219000000000000000000003C087C38743C6633F
:1021A000C66346626E666E266C362C363C3C3C3C02
:1021B0003C1C181C00000000000000000000000093
:1021C0000000000000000000000000001E303C186D
:1021D000780C700EF006E003C003C003E007700F38
:1021E000300E381E1C3C0E7800000000000000007D
:1021F00000000000000000000000000000000000DF
:102200001E701C301C383818381C781C700EF00EEC
:10221000E007E007C003C003C0018001C001C000A7
:10222000E0007C003C000000000000000000000016
:1022300000000000FC3FFC3F0038001C000E0007BF
:102240008003C001E000700038001C00FC3FFC3F30
:10225000000000000000000000000000001F801FC0
:10226000C003C001C001C00180038003800380035C
:10227000C001F800F800C0018003800380038003E0
:10228000C001C001C001C003801F001F000000008A
:102290008001800180018001800180018001800136
:1022A0008001800180018001800180018001800126
:1022B0008001800180018001800180018001800116
:1022C000000000007C00FC00E001C001C001C00172
:1022D000E000E000E000E000C001800F800FC001DE
:1022E000E000E000E000E000C001C001C001E0014A
:1022F000FC007C0000000000000000000000000066
:1023000000000000000000000000000000007860F5
:10231000FC63C63F061E0000000000000000000035
:10232000000000000000000000000000FE7FFE7FB3
:102330007E7C3E7C1E7C0E7C7E7C7E7C7E7C7E7CDD
:102340007E7C7E7C7E7C7E7C7E7C7E7C7E7C0E6049
:102350000E60FE7FFE7F0000000000000000000015
:10236000FE7FFE7F1E7C0E78C671E663E663FE6329
:10237000FE63FE71FE787E7C3E7E1E7F8E7FC67F72
:10238000C67F06600660FE7FFE7F00000000000042
:1023900000000000FE7FFE7F1E780E70C661E663BF
:1023A000E663FE63FE713E783E78FE71FE63FE6377
:1023B000E663E663C6610E701E78FE7FFE7F000056
:1023C000000000000000000000000000000000000D
:1023D000FF7FE143E363E363E363E363C7710F7884
:1023E0000F78C771E363E363E363E363E143FF7F74
:1023F00000000000000000000000000000000000DD
:1024000000000000FFFFFFFF0300030003000300C4
:1024100003000300030003000300030003000300A4
:10242000FFFFFFFF000000000000000000000000B0
:102430000000000000000000FFFFFFFF030003009A
:10244000F33FF33FF33FF33FF33FF33FF33FF33FFC
:1024500003000300FFFFFFFF00000000000000007A
:10246000000000000000000000000000FF3FFF3FF0
:102470000030003000F000F000C000C000C000C01C
:1024800000F000F000300030FF3FFF3F0000000090
:10249000000000000000000000000000000000003C
:1024A000FF3FFF3F00300030FFF3FFF3FFC3FFC3E8
:1024B000FFC3FFC3FFF3FFF300300030FF3FFF3FD8
:1024C0000000000000000000000011241FBECFEF3C
:1024D000D0E1DEBFCDBF11E0A0E0B1E0E2E4F1EB7E
:1024E00002C005900D92A031B107D9F722E0A0E11A
:1024F000B1E001C01D92A930B207E1F70E942E554C
:102500000C945A580C9400009091BE01981303C08B
:102510008091C10108959091BF01981303C08091EB
:10252000C20108958091C301089580E00E94E22DC8
:1025300081E00E94E22D82E00E94E22D8DE30E9464
:102540006A5380E00E94FE2D81E00E94FE2D82E011
:102550000E94FE2D0895A3E0B0E0E1EBF2E10C94BF
:10256000AA57C0903601D090370189836A834B8384
:10257000CE0101967C0110E000E0F701B1907F01EF
:10258000BB20C9F0802F0E94E22D0E94232EF8016B
:10259000EE0FFF1FE050FF4F808191819093370134
:1025A000809336018B2D0E946A53D0923701C092DE
:1025B00036010E941B2E0F5F1F4F03301105E9F6F5
:1025C0002396E9E00C94C657AF92BF92CF92DF9268
:1025D000EF920F93CF93DF9300D000D00F92CDB73F
:1025E000DEB729830D830E944A2B082F0E94702D8D
:1025F00085E40E946A53B980AB2CB12CD12CC12C3C
:1026000020E040E0C601B5010E94A72E0E941B2ECB
:1026100041E08D818A3008F040E08D816AE00E94BF
:10262000F756A82EB12CD12CC12C25E2C601B5013C
:102630000E94A72E0E941B2E002361F1B090310151
:10264000B9824E2D6091D7018091D3019091D40130
:102650000E94FD2F023081F40E94702D60913201A2
:1026600089810E940C524E2D6091DC018091D8012D
:102670009091D9010E94FD2F0F900F900F900F9015
:102680000F90DF91CF910F91EF90DF90CF90BF909F
:10269000AF9008950E941F2EEFCFEF92FF920F93FD
:1026A000CF93DF9300D000D00F92CDB7DEB7298350
:1026B0000E944A2B8D830E94702D85E40E946A53EC
:1026C0009981892F90E0B0E0A0E020E040E0BC01DB
:1026D000CD010E94A72E0E941B2EAD81AA2351F18D
:1026E000B0913101B983A7016091D7018091D301E5
:1026F0009091D4010E94EB308D81823081F40E9450
:10270000702D6091320189810E940C52A701609165
:10271000DC018091D8019091D9010E94EB300F909B
:102720000F900F900F900F90DF91CF910F91FF902E
:10273000EF9008950E941F2EF2CF0F93CF930AE0DF
:1027400020E60E944A2BC82F0E94702D85E40E942B
:102750006A5320E040E060E670E080E090E00E9494
:10276000A72E0E941B2E25E240E061E070E080E091
:1027700090E00E94A72E0E941B2ECC2399F060911E
:10278000D7018091BE010E942330C23041F40E94E3
:102790001B2E6091DC018091BF010E942330CF91FC
:1027A0000F9108950E941F2EFACF82E00E949A2E68
:1027B0008DE494E00E94B72D86E494E00E94392EC7
:1027C0008EE08093190181E00E949A308091BC01D3
:1027D0008F5F8093BC010895A4E0B0E0E2EFF3E1E5
:1027E0000C94B15780911101813029F582EF93E06B
:1027F0000E94A82D0E94702D809116010E94E22D4A
:102800000E94232E0E941B2E809117019091180187
:102810009C0150E040E029833A834B835C8326E5AA
:102820004DEF69817A818B819C810E94252F2496AE
:10283000E2E00C94CD578230D1F70E94D513F7CF48
:10284000A5E0B0E0E6E2F4E10C94B15769834D8372
:10285000442309F10E94FE2D82E092E00E94A82DFF
:102860008D818823D9F089810E94FE2D0E941B2E24
:1028700080911E0190911F01A0912001B091210132
:1028800024E040911D01BC01CD010E94252F259619
:10289000E2E00C94CD570E94E22DDECF89810E94A8
:1028A000E22DE4CFA8E0B0E0E8E5F4E10C94A7570E
:1028B00080911401813009F0F0C010911B01D12CDE
:1028C000C12C2BE131E03E832D830E947D2EED81D2
:1028D000FE818081811709F449C10E94E22D82E0C6
:1028E00092E00E94A82D812F0E94E22DC114D104F4
:1028F00059F082E092E00E94A82DF60180818117B4
:1029000009F439C10E94E22D0E94882E0E94702D88
:10291000AD81BE811396ED90FD900D911C9116979F
:10292000E982FA820B831C8324E012964C91C80141
:10293000B7010E94252FC114D10409F41EC10E94C1
:102940001B2ED6011396ED90FD900D911C911697BC
:10295000E982FA820B831C8324E012964C91C80111
:10296000B7010E94252FF60103811481258136814C
:10297000AD81BE8113968D919D910D90BC91A02D3E
:1029800089839A83AB83BC83E280ED81FE8142819F
:10299000BC01CD010E94A71E182FAD81BE811396E8
:1029A0002D913D914D915C91169729833A834B83EC
:1029B0005C83282F12964C9169817A818B819C814E
:1029C0000E947F1E4B015C01D60113962D913D9113
:1029D0004D915C91169729833A834B835C83212F19
:1029E00012964C9169817A818B819C810E947F1E15
:1029F0009B01AC01280D391D4A1D5B1D29833A83BB
:102A00004B835C83232B242B252B09F442C08DE1BF
:102A100092E00E94462E24E0412F69817A818B81C9
:102A20009C810E94252F8AE192E00E94462EA4E616
:102A3000B0E0A50194010E94965729813A814B810B
:102A40005C810E94395729833A834B835C8325E25A
:102A500040E069817A818B819C810E94252F0E94B0
:102A60001B2E87E192E00E94272E84E690E0A0E0F2
:102A7000B0E07C018D0129813A814B815C81E21AB1
:102A8000F30A040B150B25E240E0C801B7010E94D0
:102A9000252F2896ECE00C94C357833009F05DC0D5
:102AA000EBE1AE2EE1E0BE2E42E251E05E834D83CB
:102AB000D50113960D911D912D913C911697AD81E5
:102AC000BE8113968D919D910D90BC91A02D89830F
:102AD0009A83AB83BC83F501E280AD81BE811296FF
:102AE0004C9169817A818B819C810E94DD1D8130AE
:102AF00011F4AD80BE80ED81FE813796FE83ED83BB
:102B0000E053F140A9F61BE1A11611E0B10601F571
:102B100022E231E03E832D83CD80DE8057E0C50E7A
:102B2000D11CAC14BD0429F4CD80DE808EE0C80E2B
:102B3000D11CED81FE818081D6011C91811709F4A1
:102B4000C4CE11961C91811709F4BFCE1181BDCE60
:102B50004BE151E05E834D83DFCF72E2C72E71E01F
:102B6000D72EABE1B1E0BE83AD83E3CFAD81BE81B3
:102B700011968C91B2CE8181C5CE8D819E810E94AD
:102B8000CB44813009F040C00E941B2E8091FB0194
:102B90009091FC01A091FD01B091FE0128E44091CB
:102BA000FA01BC01CD010E94252FE090FB01F090BD
:102BB000FC010091FD011091FE01E982FA820B8374
:102BC0001C8368E4E62E08EC26E04091FA01698156
:102BD0007A818B819C810E94E4120091FB0110910B
:102BE000FC012091FD013091FE0109831A832B83A2
:102BF0003C8304E62CE04091FA0169817A818B8163
:102C00009C810E94E41245CFAD81BE8113962D9127
:102C10003D914D915C91169729833A834B835C8358
:102C200084E0E82E02E328E112964C9169817A81D2
:102C30008B819C810E94E412AD81BE811396ED9040
:102C4000FD900D911C911697E982FA820B831C83EB
:102C500094ECE92EFE2C02E328E112964C91698156
:102C60007A818B819C810E944D13AD81BE81139628
:102C7000ED90FD900D911C911697E982FA820B83DD
:102C80001C8324E0E22E0AE028E112964C9169812F
:102C90007A818B819C810E94E412AD81BE81139662
:102CA000ED90FD900D911C911697E982FA820B83AD
:102CB0001C8337E2E32E3AE7F32E0AE028E112966E
:102CC0004C9169817A818B819C810E944D13AD81E9
:102CD000BE811396ED90FD900D911C911697E9829F
:102CE000FA820B831C8344E0E42E0AE020E612966D
:102CF0004C9169817A818B819C810E94E412AD8123
:102D0000BE811396ED90FD900D911C911697E9826E
:102D1000FA820B831C8357E2E52E5AE7F52E0AE070
:102D200020E612964C9169817A818B819C810E9468
:102D30004D13AD81BE811396ED90FD900D911C91C8
:102D40001697E982FA820B831C8312964C91C80174
:102D5000B7010E949D139DCECF92DF92EF920F9309
:102D60001F93CF93DF9300D000D000D0CDB7DEB754
:102D70003BE5C32E31E0D32EDE82CD8230E1C30E9F
:102D8000D11CAD81BE8113960D911D912D913C9169
:102D90001697D60113968D919D910D90BC91A02D03
:102DA00089839A83AB83BC83ED81FE81E280D60167
:102DB00012964C9169817A818B819C810E94DD1DE4
:102DC000813011F4DE82CD82BBE7CB16B1E0DB06A9
:102DD000A9F60E947D2EED81FE8180810E94E22D68
:102DE0008FE092E00E94A82DAD81BE8111968C915A
:102DF0000E94E22D0E94882E0E94702DAD81BE811E
:102E000013962D913D914D915C91169729833A83AC
:102E10004B835C8326E412964C9169817A818B8185
:102E20009C810E94252F8D819E810E94FF346C0120
:102E3000019689F00E941B2E960150E040E0298304
:102E40003A834B835C8324E04EEF69817A818B81E6
:102E50009C810E94252FAD81BE811B968D919C91F6
:102E6000892BB9F086E692E00E94462EED81FE8124
:102E7000838594859C0150E040E029833A834B830D
:102E80005C8321E4458569817A818B819C810E94E4
:102E9000252FAD81BE811E968D919C91892BB9F015
:102EA00083E192E00E94462EED81FE818685978522
:102EB0009C0150E040E029833A834B835C8325E208
:102EC0004FEF69817A818B819C810E94252FAD8192
:102ED000BE8113968D919D910D90BC91A02D8983FB
:102EE0009A83AB83BC8326E4E22E08EC26E0ED81D6
:102EF000FE814281BC01CD010E94E412AD81BE8100
:102F000013962D913D914D915C91169729833A83AB
:102F10004B835C8304E62CE012964C9169817A81A4
:102F20008B819C810E94E41226960FB6F894DEBF36
:102F30000FBECDBFDF91CF911F910F91EF90DF902A
:102F4000CF900895EF920F931F93CF93DF9300D00C
:102F500000D000D0CDB7DEB78E839D838091D301A2
:102F60009091D401A091D501B091D60127EFE22E26
:102F70000AE010E020E030E04091D701BC01CD0133
:102F80000E94DD1D87FD13C08E819D810E94462E0B
:102F90008091D3019091D401A091D501B091D60137
:102FA00021E44091D701BC01CD010E94252F269636
:102FB0000FB6F894DEBF0FBECDBFDF91CF911F914A
:102FC0000F91EF900895A4E0B0E0E9EEF7E10C94E2
:102FD000B157FC0140E0608181810E947A39EBE5C4
:102FE000F1E083819481A581B68126E44281BC0110
:102FF000CD010E94252F2496E2E00C94CD57CF936B
:10300000C62F0E94FE2D81E00E946A538C2F0E94E1
:10301000FE2DCF910895A6E0B0E0E1E1F8E10C9437
:10302000AA570E947D2ED090150121E0D2120DC02A
:10303000E0908C0185E0C82E95E0B92E25E0F22EB7
:103040001E821D820BE811E06FC032E0D31222C055
:10305000F0908B01C090910180918C01E0909201E1
:10306000FC1409F491C08E1509F436C1FE103EC15E
:10307000C81609F42AC1A5E0CA2EB5E0BB2E15E09A
:10308000E12E05E0F02EDD24D39441E951E05E838A
:103090004D83D8CF53E0D5126AC000E046E0202F20
:1030A00030E0802F1982409FF0011124E457FE4F39
:1030B0009981692F70E0891709F452C0469FD001A9
:1030C000479FB00D1124A557BE4F50819C915913B5
:1030D00049C095E085E09F5F933008F43FC08F5F63
:1030E0008330D0F1853008F43FC0E98146E0E49FA9
:1030F000F0011124E557FE4FFE83ED8386E0089F23
:103100008001112405571E4F829FF001839FF00D0F
:103110001124E557FE4FE18073E0F72EE5E0CE2E57
:10312000F5E0BF2EDD24D394F80180810E94E22DCA
:103130008BE092E00E94A82D8E2D0E94E22D2D8121
:103140003E81232B09F446C0FE10E6C0ED81FE81CE
:10315000E08087E092E039C0082FA1CF9983A8CF03
:10316000982FB9CF9981B7CF1E821D82C7CF8BE030
:1031700092E00E94272E80911501805D0E946A5383
:103180002696E9E00C94C657B82EF5E0F983DD24C5
:10319000D39422E02F1508F4B8C00E94E22D87E0F6
:1031A00092E00E94A82D8F2D0E94E22D3981CE2C15
:1031B00041E951E05E834D830BE811E0F31631F2F3
:1031C000ED81FE81E1808BE092E00E94A82D8E2DA2
:1031D0000E94E22D0E94882EF4E0FB15E8F049E100
:1031E0006C2D8B2D0E94B0348130B1F40E941B2EC7
:1031F00022E08FEC92E02F1510F483ED92E00E9414
:10320000A82D8FE30E946A530E94702D40E06C2D20
:103210008B2D0E942014D12C8AEB92E00E94462E26
:10322000F801828193819C0150E040E029833A8338
:103230004B835C8326E54DEF69817A818B819C818C
:103240000E94252F0E941B2E4D815E81452B09F087
:1032500068C0F801848195818A3F9105A0F488E2D5
:103260000E946A53F801848195819C0150E040E0FE
:1032700029833A834B835C83CA01B9010E94D12F11
:1032800089E20E946A53F801608181810E94782955
:1032900081E00E940F3B80EB92E00E94A21731E098
:1032A000D3126ECF88EB92E00E94462EC8010E9496
:1032B000E3174D815E81452B09F462CF0E941B2EDE
:1032C0008D819E810E94E3175BCFF98255E0E52E48
:1032D00065E0B62ED12C5DCFBF2C45E0F42EDD2469
:1032E000D39481E991E09E838D83ACCE85E0C82E96
:1032F00095E0B92E25E0E22E35E0F32EDD24D394BF
:10330000E1E9F1E0FE83ED839DCECE2CE98021E959
:1033100031E03E832D8396CEF3E0FF1508F416CFFF
:103320004FCFED81FE81828193819C0150E040E08E
:1033300029833A834B835C8326E54DEF69817A814B
:103340008B819C810E94252FAACFA6E0B0E0EBEAFA
:10335000F9E10C94A7572091C0012D831091BE0173
:103360003091BF0139838091110180FF2CC1E32E80
:10337000F12E032F29831D83122F93EDC92E92E086
:10338000D92E62EF77E089ED93E00E94782E62EF0C
:1033900077E0C6010E94652E8091110182FF03C073
:1033A0008BE20E946A53602F89810E94873B6C01E7
:1033B000892B31F00E94702D602F89810E94FF17A8
:1033C00049E16D81812F0E94B034813061F40E9407
:1033D000702D41E06091C0018091BE010E942014D7
:1033E00084E080933A018BEC92E00E94462E80911B
:1033F000CB019091CC01A091CD01B091CE01BC0147
:10340000CD010E94D12F0E941B2E8091C40180FF0C
:10341000E2C085E60E946A538EE392E00E942C2E61
:103420008091C40180FFDBC083E40E946A530E9444
:103430001B2E8091C9019091CA019C01990F440BE8
:10344000550B29833A834B835C8321E44AEF6981DE
:103450007A818B819C810E94D62FC114D10401F501
:103460008091CF019091D001A091D101B091D20172
:10347000892B8A2B8B2BA1F089E392E00E94462EA8
:103480008091CF019091D001A091D101B091D20152
:1034900089839A83AB83BC83BC01CD010E94D12F69
:1034A000612F8D810E94873B8C01892B09F4A1C07B
:1034B00087EC92E00E94462ED80112960D90BC91A6
:1034C000A02DBE83AD83F801248135818090CB018E
:1034D0009090CC01A090CD01B090CE01F4E68F1673
:1034E0009104A104B104A0F0CD01821B930B63E011
:1034F00070E00E9425574AEF84169104A104B1049C
:1035000008F071C08D819E81861B970B9E838D83F1
:10351000ED81FE81B0E0A0E026E54DEFBF01CD01D9
:103520000E94252F8DEB92E00E94A21785E392E086
:103530000E94462E2091D8013091D9014091DA01A4
:103540005091DB0129833A834B835C8326E44091CD
:10355000DC0169817A818B819C810E94252F4D81BC
:103560005E81453F514058F16E2D8F2D0E94873B63
:1035700089839A83A981BA81109709F112968D9156
:103580009C91823C9140D8F40E94702D6E2D8F2D1D
:103590000E94FF170E941B2EE981FA81828193818C
:1035A0009C0150E040E029833A834B835C8326E50D
:1035B0004DEF69817A818B819C810E94252F26960F
:1035C000ECE00C94C357E12EF9800D818FECC82EEE
:1035D00082E0D82ED6CE81FF1FCF83E61BCF81FF9E
:1035E00026CF85E422CFD901A60FB71FBE83AD83B6
:1035F0008FCF1E821D8296CFA6E0B0E0E2E0FBE115
:103600000C94AF571091BF010091C001809111013E
:1036100080FF03C0812F102F082F602F812F0E9461
:10362000873B8D839E832D813E81232B51F080919A
:10363000110184FD06C00E94702D602F812F0E9411
:10364000FF178091110182FF52C08091C7019091B4
:10365000C801892BC1F084EB92E00E94462E809134
:10366000C7019091C8019C01990F440B550B298308
:103670003A834B835C8326E54DEF69817A818B81A8
:103680009C810E94D62F87ED92E00E94462E809169
:10369000D8019091D901A091DA01B091DB01898321
:1036A0009A83AB83BC8326E44091DC01BC01CD014D
:1036B0000E94252F8091C5019091C601892BB9F0F8
:1036C00082E692E00E94462E8091C5019091C6014B
:1036D0009C0150E040E029833A834B835C8324E0E3
:1036E0004EEF69817A818B819C810E94252F4D81CB
:1036F0005E81452BF9F00E94702D81E00E946A5393
:103700000E941B2E8AEB92E00E94272EAD81BE8183
:1037100012968D919C919C0150E040E029833A8360
:103720004B835C8326E54DEF69817A818B819C8197
:103730000E94252F2696E4E00C94CB570E941B2E66
:103740008091110180FF08C08EE40E946A538AEEC6
:1037500092E00E94A82D089580E5F7CF0E941B2ECD
:103760008091110182FF05C085EE92E00E94A82D94
:10377000089580EE92E0FACFA4E0B0E0E2ECFBE145
:103780000C94B1570E947D2E8091110184FF41C09D
:1037900082EF92E00E94A82D8EEE92E00E94A82D6A
:1037A0000E949E1B8091110184FD0E94AE1B0E940D
:1037B000882E0E94FC1A8091110183FF26C08AE6A0
:1037C00092E00E94A2178091C9019091CA01892BB1
:1037D000E1F088E592E00E94462E0E94702D0E9442
:1037E0001B2E8091C9019091CA019C01990F440B35
:1037F000550B29833A834B835C8326E54DEF698122
:103800007A818B819C810E94D62F2496E2E00C94D1
:10381000CD578AE40E946A53BFCF0E947D2E8BED64
:1038200092E00E94A82D0E949E1B0E94AE1B0E9447
:10383000882E0E94FC1A0895A4E0B0E0E2E2FCE1C8
:103840000C94B1578091100162EF77E0823229F534
:1038500085ED93E00E94652E8091C5019091C6018F
:10386000892BB9F082EC92E00E94462E8091C5012E
:103870009091C6019C0150E040E029833A834B833C
:103880005C8326E54DEF69817A818B819C810E9462
:10389000252F2496E2E00C94CD578FEC93E0DACFFD
:1038A000A4E0B0E0E6E5FCE10C94B15762EF77E00C
:1038B0008BEC93E00E94652E8DEA92E00E94462EEA
:1038C00080914D0190914E019C0150E040E0298390
:1038D0003A834B835C8326E54DEF69817A818B8146
:1038E0009C810E94252F8AEB92E00E94462E8091B7
:1038F0004B0190914C019C0150E040E029833A83B8
:103900004B835C8326E54DEF69817A818B819C81B5
:103910000E94252F2496E2E00C94CD57A4E0B0E05D
:10392000E4E9FCE10C94B15762EF77E087E693E0BD
:103930000E94652E81E492E00E94462EEBE1F1E0C8
:1039400083819481A581B68124E04281BC01CD01AF
:103950000E94252F2496E2E00C94CD57A5E0B0E01C
:10396000E4EBFCE10C94B15788EC8093B20184E065
:103970000E949428AC018B5C98402091AF012D836C
:10398000833F914098F52091B7013091B801AFEB9A
:10399000B9E00E9480579A0150E040E00E943957F8
:1039A0003093B8012093B7018D8184608093AF017B
:1039B0008EE10E9494289093B6018093B50188EC23
:1039C0008093B2018EE10E9494282091F601820F2B
:1039D000911D27FD9A959093B6018093B5018EE1D4
:1039E0008093B2012596E2E00C94CD572D812B7F78
:1039F0002093AF01DDCF0E949D528DEF97E0909311
:103A000037018093360181E00E949A2E86EC93E084
:103A10000E94B72DF8940FB6F894A8958091600095
:103A2000886180936000109260000FBE469883B753
:103A3000817F846083BF83B7816083BF889583B7AC
:103A40008E7F83BF0895A4E0B0E0E9E2FDE10C942D
:103A5000B1578091B9019091BA0188342DE0920755
:103A600048F580E898EF90933701809336018EE017
:103A700089838CE00E946A5389810E946A530E9464
:103A80001B2E87E297E09093370180933601809157
:103A9000B9019091BA016AE070E00E941157B0E05C
:103AA000A0E026E54EEFCD010E94252F2496E2E00E
:103AB0000C94CD5780319E4050F480E49FEF90935A
:103AC000370180933601BEE0B9838DE0D3CF82EF1A
:103AD00097E090933701809336012FE02983F5CF4B
:103AE000A4E0B0E0E6E7FDE10C94B15785E00E9468
:103AF00094289C01AEEBBFE00E94805728EE33E093
:103B000040E050E00E9439573093BA012093B90148
:103B100084E68093BB0128343D4080F487E297E03F
:103B200090933701809336010E949D520E94231D7D
:103B300088EB9BE00E9453230E94FB1C2496E2E04A
:103B40000C94CD57CF92DF92EF92FF92CF93DF93F9
:103B500000D000D00F92CDB7DEB769837A838B8314
:103B60009C8381E08D838AE0C82ED12CE12CF12C3E
:103B700089819A81AB81BC810A97A105B10568F45E
:103B80008D810F900F900F900F900F90DF91CF913C
:103B9000FF90EF90DF90CF90089569817A818B81BB
:103BA0009C81A70196010E94395729833A834B8350
:103BB0005C839D819F5F9D83DBCFA6E0B0E0E3EE59
:103BC000FDE10C94A2574B015C01342E2801390110
:103BD0001E2D89829A82AB82BC8281E08D839AE01D
:103BE000C92ED12CE12CF12C89819A81AB81BC8129
:103BF0000A97A105B10560F549825A826B827C82E1
:103C000091E09E838AE0C82ED12CE12CF12C898191
:103C10009A81AB81BC810A97A105B10548F5811451
:103C20009104A104B10409F450C041145104610489
:103C3000710409F445C04D81430DEE80E10EE41698
:103C40000CF45BC0ED81FE814E1559F18FEF45C03C
:103C500069817A818B819C81A70196010E943957E5
:103C600029833A834B835C839D819F5F9D83BCCF77
:103C700069817A818B819C81A70196010E943957C5
:103C800029833A834B835C83AE81AF5FAE83BFCF22
:103C9000AAE0B0E0A30192010E9496572B013C01DB
:103CA000FF5F9D81F917A4F3AE819A17D4F09A1B98
:103CB0009983B9818E81B80FB9839981E9179CF0F6
:103CC000481459046A047B04C0F081E0841495040C
:103CD000A604B70408F080E081952696E1E10C94F3
:103CE000BE571982E6CFAAE0B0E0A50194010E9478
:103CF00096574B015C01EF5FE0CF81E0EECFCF92B2
:103D0000DF92EF92FF92CF93DF93C42FD22F2AE05E
:103D1000C22ED12CE12CF12CCD1307C0DF91CF9115
:103D2000FF90EF90DF90CF900895CD1744F4A70156
:103D300096010E943957B901CA01CF5FEDCFAAE0C1
:103D4000B0E09B01AC010E949657C150E5CF8F9225
:103D50009F92AF92BF92EF920F931F93CF93DF93F7
:103D6000CDB7DEB72A970FB6F894DEBF0FBECDBF32
:103D700069837A838B839C834A870D831E832F8379
:103D80003887E98601E09AE0892E912CA12CB12C8C
:103D900089819A81AB81BC810A97A105B10550F553
:103DA000EA84E00E11E08AE0882E912CA12CB12C3F
:103DB0008D819E81AF81B8850A97A105B10540F537
:103DC0008985810F8E1594F50530E4F19CEF9E0DE9
:103DD000998789852A960FB6F894DEBF0FBECDBFAE
:103DE000DF91CF911F910F91EF90BF90AF909F9077
:103DF0008F90089569817A818B819C81A5019401BE
:103E00000E94395729833A834B835C830F5FC0CF6D
:103E10006D817E818F819885A50194010E9439571B
:103E20002D833E834F8358871F5FC2CFE8162CF443
:103E300015307CF284508987CCCF101754F6AA85B0
:103E4000A987C7CFBA85B987C4CF0F931F93CF93E4
:103E5000DF93182FEC010C2F011BCE010E94345868
:103E6000811106C0802FDF91CF911F910F9108958E
:103E70002196F1CFCF93C7B187B1877E87B90E94D2
:103E80001D5596B1892F887093FD82E094FD816065
:103E9000C7B990914301913031F48093420110925F
:103EA000430110924501909145012FEF290F293FC1
:103EB00018F49F5F909345019091420180934201D5
:103EC000891302C080E028C0282F292720FF2695CB
:103ED000213031F5990F22E730E002C03595279562
:103EE0009A95E2F723708217C9F085E0909144011A
:103EF0009F5F9093440190914301981729F091E0BE
:103F00009093440190934501809343019091440123
:103F10009430C0F210924401CF91089584E0E6CF2E
:103F200081E080934301CECFB0E0A0E0EAE9FFE179
:103F30000C94A1577C01D62F81E08093430110920D
:103F40004401809340018091B00168E5C62E62E093
:103F5000D62E85FD02C0D12CC12CD2FF05C0809188
:103F6000AF0180FD75C0DC7FA0903601B0903701B5
:103F700082EF97E090933701809336018D2F807206
:103F8000982ED5FF19C080914601909147010E945B
:103F9000251F815090903301891508F05CC0981A54
:103FA000DC7F60913401892D0E940C528091460182
:103FB000909147010E94A82D9D2F9370592E19F0C2
:103FC00081E00E94D75332E0632E812C42E3742EAD
:103FD00010E0C1E000E08D2F8270482E9D2F90717F
:103FE000392E58E1252EE114F10439F083E0E8166A
:103FF000F10498F192E0E91AF10837993BC08EE19B
:1040000090E00E94532310E0C11129C0CD2FC87049
:1040100001E0D3FFB7C082E390E00E945323C4E1E4
:1040200001E037990CC08EE190E00E94532337994C
:1040300006C088EC90E00E945323C1E003E0C15029
:104040008AE090E00E945323C111EBCF10E09AC0A8
:10405000F12CE12C89CF912CAFCFC0E0CECF379996
:10406000D5CF1F5F1B3109F48BC08AE090E00E941E
:104070005323CACF0E943A1F882309F448C08820DE
:1040800009F1801701F1B0923701A0923601552055
:1040900019F080E00E94D753992041F060913401DB
:1040A000892D0E940C5280E00E94375200933F01FC
:1040B000073611F40E94FB1C802FCDB7DEB7E2E17A
:1040C0000C94BD57082F839480914501682D0E9460
:1040D000F7569CE0790E780E829DC001112424E0F1
:1040E000969587952A95E1F7282F893270F4869561
:1040F00086958695283110F493E0692E681007C0E4
:1041000097E0981B90934001BECF85E0F7CF8820C1
:1041100029F080914501871508F0B5CF82E090E045
:104120000E9453231F5F812F68E20E94F75691116E
:1041300007C08091BB018230C8F081508093BB01E1
:10414000183C01F5442031F0C130A9F480E00E9410
:10415000D753C2E0C114D10409F478CF81E0C81666
:10416000D104D1F091E0C91AD10870CF332041F3C6
:104170000E94701DE5CF81E00E94D753C1E0EACFD5
:10418000C0E002E08091B00180FF0AC08091B001E0
:104190008E7F8093B00177CF10E0C0E007E6F2CFCA
:1041A000C11121CF70CF65E188EB9BE00E94941F85
:1041B0000895379B05C084EF91E00E945323089532
:1041C0000E941755A895F5CF0F931F93CF93DF93B8
:1041D000C82F0AE014E0D3E0811103C0D0E001E170
:1041E00014E00E94C129D817A1F00E949D5282E0DC
:1041F0000E949A2EC8010E94B72D8BEF93E00E9477
:10420000392E0E94C129D8130AC088EC90E00E9480
:10421000532381E0DF91CF911F910F91089560E1C9
:1042200084E690E00E94941FC13059F7882349F337
:1042300080E0F0CF681310C082EF97E090933701D1
:10424000809336018AE20E946A5387E297E0909356
:1042500037018093360108950E941B2E0895A6E031
:10426000B0E0E5E3F1E20C94A257782E462E5A0115
:104270006901EE24EA94E80E10913401FF24FA94C7
:10428000F10E0E947D2E0E94232E0E94882E22E095
:104290002D8300E01E8281E09EEF392E310E682EC4
:1042A000611A670C582E5F1831E0F31204C04D817B
:1042B0004F5F4D830E81802E912C880C991C8A0CA7
:1042C0009B1C10E01F1528F141E0F41209C0609119
:1042D0003401809133010E940C528CE30E946A5396
:1042E00060E190E080E00E94941F813009F481C079
:1042F000843009F45EC0853009F077C05E815111C9
:1043000041C0EF1408F489C0062D1E2D82E08D8374
:104310006AC062E0610F81E00E940C5251E0F51624
:1043200029F06E81802F810F0E941A218D818130AA
:1043300089F091E0491217C0F401808191810E94B7
:10434000A82DC114D10419F0C6010E94A82D80E047
:104350000E94375232E0830E911C1F5FE11608F075
:10436000B1CF1F2DAFCFC4010E943C589C0150E03B
:1043700040E029833A834B835C83CA01B9010E94E0
:10438000D12FDFCF1E81115001134BC0002309F440
:104390004BC09E81092F050D9F1508F400E08E810A
:1043A000E2E0ED83823031F18736E9F40E94FB1CB4
:1043B0001AC0FE81EF1207C0EF1438F122E02D83FE
:1043C00000E010E010C01E811F5F832D800F1813C6
:1043D0001FC01E15F8F4872D811B8F1508F46E82FF
:1043E0000E8132E03D831E835FCF1E8141E04D830D
:1043F000D9CF1E810E949D5284EF91E00E945323E9
:10440000812F2696E1E10C94BE5751E05D83D8CF11
:1044100081E07DCF91E09D83E6CF1E2DE1E0ED832D
:10442000E2CFF1E0FD83DFCF21E02D83DCCFA9E0F7
:10443000B0E0EDE1F2E20C94B057182F82E792E081
:104440009A83898381E08F838FE692E09C838B83BC
:1044500082E0888786EE93E09E838D8319860E9492
:104460009D5262EF77E089E294E0123011F084E22D
:1044700094E00E94652E30E020E0AE014F5F5F4F78
:1044800061E083E00E942F21FE01E80FF11D6781AA
:10449000662319F0812F0E94E5232996E3E00C940E
:1044A000CC57ACE3B0E0E7E5F2E20C94B1578EEA0A
:1044B00093E09A83898386E089A782EA93E09C83CC
:1044C0008B8387E08AA784E592E09E838D8389E0D1
:1044D0008BA78BE593E098878F8383E18CA786E396
:1044E00093E09A87898786E18DA78CE293E09C8789
:1044F0008B8787E18EA782E293E09E878D878BE191
:104500008FA786E193E0988B8F878CE188AB8BE057
:1045100093E09A8B898B8DE189AB83E993E09C8B47
:104520008B8B8BE08AAB8AE793E09E8B8D8B8EE042
:104530008BAB8DEF92E0988F8F8B89E28CAB8FE203
:1045400092E09A8F898F88E18DAB8EEB93E09C8F00
:104550008B8F81E08EAB8EE294E09E8F8D8F82E018
:104560008FAB89E294E098A38F8F83E088AF84E2D9
:1045700094E09AA389A384E089AF88E194E09CA3A6
:104580008BA385E08AAF87E093E09EA38DA384E1AF
:104590008BAF86EE93E098A78FA31CAE0E949D522E
:1045A00062EF77E089E394E00E94652E30E020E03E
:1045B000AE014F5F5F4F61E084E10E942F21FE0159
:1045C000E80FF11D81A5EC96E2E00C94CD57CF9356
:1045D0000E9451229091AF0190FF05C09091B001CF
:1045E0009F7D9093B0018A3240F5E82FF0E0E958C2
:1045F000F74A0C947A57C9E68091AF0180FF05C055
:104600008091B00180628093B0010E949D5281E050
:10461000C11144C00E949A2E8BEE93E00E94B72DE8
:104620008C2FCF9108950E944C27C82FE5CF0E9470
:10463000D824FBCF82E00E941722C1E0DDCF81E0C9
:10464000FACF0E941E24F9CF0E94194DF6CF0E9486
:10465000F04EF3CF0E944A46F0CF0E942747EDCF9D
:104660000E948747EACF0E947749E7CF0E94FB1C50
:10467000E4CF0E94874AE1CF0E94C94ADECF0E9460
:104680006A51D3CF0E94454BD8CF0E94A24BD5CFC1
:104690000E94544CD2CF0E94DC4CCFCF0E949A2E65
:1046A00080E494E0BBCF3091B101B0E0A0E0F4E051
:1046B000880F991FAA1FBB1FFA95D1F73630C1F496
:1046C000492F5A2F6B2F77274F5F5F4F6F4F7F4FC9
:1046D000E4E0440F551F661F771FEA95D1F748178E
:1046E00059076A077B07C0F4841B950BA60BB70B11
:1046F0001092B1001092B20022E02093B0002093FB
:10470000700023B7217F232B23BF0FB607FC30C0D7
:10471000789430E0E7E01CC030E0EACFA895AC0127
:10472000BD018F3F9105A105B10529F020F04FEFA4
:1047300050E060E070E0841B950BA60BB70B415076
:104740004093B300E093B1002091B100211108C063
:104750000097A105B10511F7311101C0F894089532
:1047600023B7216023BF889523B72E7F23BFECCFCB
:1047700031E0D0CF1F921FB61F9211241092B100CA
:104780001F901FBE1F901895EFEEF1E088EC90E0AF
:10479000918380838CED90E09383828384E190E029
:1047A000958384838BE28683178210861186089511
:1047B000EFEEF1E080E09191890F91E0E93FF90798
:1047C000D1F7811101C081E008951F93CF93DF934A
:1047D000182FC9E8D4E0623011F4CEE7D4E00E948B
:1047E000D8238093F9014BE050E0BE018FEE91E0B9
:1047F000123031F40E944258DF91CF911F910895F9
:104800000E942458C091F901CC23B1F30E94D8230F
:10481000C81791F30E949D5282E00E949A2E8DED5E
:1048200093E00E94B72D8BEE93E00E94392E80ED2D
:1048300097E00E9453230E94C423DECFA4E0B0E09F
:10484000E4E2F4E20C94B15781E0809330010E94DD
:104850009D528CE992E00E94272E8091EF01909169
:10486000F0019C0150E040E029833A834B835C8354
:1048700024E04FEF69817A818B819C810E94252FF2
:1048800088E992E00E94462E8091F1019091F20118
:104890009C0150E040E029833A834B835C8324E011
:1048A0004FEF69817A818B819C810E94252F82E85C
:1048B00092E00E94462E8091F501282F30E050E0D2
:1048C00040E029833A834B835C8326E444EF69818B
:1048D0007A818B819C810E94252F8FE792E00E9434
:1048E000462E8091F3019091F4019C0150E040E04C
:1048F00029833A834B835C8324E04EEF69817A817C
:104900008B819C810E94252F88EA92E00E94462E8E
:104910008091B5019091B6019C0150E040E029835F
:104920003A834B835C8326E54DEF69817A818B81E5
:104930009C810E94252F8BE792E00E94462E809159
:10494000B7019091B8019C0150E040E029833A837F
:104950004B835C8326E54DEF69817A818B819C8155
:104960000E94252F8091AF0182FF05C00E941B2E5F
:104970008AE20E946A5385E792E00E94462E809167
:10498000F701282F880F330B440B550B29833A83EB
:104990004B835C8326E54DEF69817A818B819C8115
:1049A0000E94D62F0E94D3202496E2E00C94CD578B
:1049B000A0E1B0E0EEEDF4E20C94A15781E00E949A
:1049C000E420882309F435C11E86D12CC12C1D8614
:1049D0001C861B861A86312C212C912C512C412CA3
:1049E000812CF12CE12C10E000E0188A1F8621E0D8
:1049F0002D8354E0752E60E4662E0E949D520E9425
:104A00007D2E81E40E946A538D81805D0E946A53ED
:104A10000E94882E0E941B2E31E039834D81443044
:104A200009F44DC158F4423009F408C1433009F487
:104A30003FC1413009F465C081E09EC05D815530C1
:104A400009F46FC15630C1F7A981A13041F482E861
:104A500092E00E94272E85E892E00E94A82D40E077
:104A600060E081E00E947A3980915D01843F91F499
:104A70008091620190916301A0916401B091650100
:104A800085369105A105B10528F4988B8F87480ECE
:104A9000591E839441E060E082E00E947A3980915F
:104AA0006D01843F89F48091720190917301A0910E
:104AB0007401B091750185369105A105B10520F409
:104AC0008C01480E591E839442E061E082E00E940E
:104AD0007A3980917D01843F09F0AECF80918201C7
:104AE00090918301A0918401B09185018536910553
:104AF000A105B10508F0A0CF7C01480E591E839492
:104B00009BCF8981813041F488EA92E00E94272E70
:104B100085E792E00E94A82D0E94303A9E85980F6A
:104B20009E870E94702D8091F601282F880F330BED
:104B3000440B550B2E833F834887598726E54DEF5D
:104B40006E817F81888599850E94D62F0E941B2EB9
:104B50008091F701282F880F330B440B550B2E83C0
:104B60003F834887598726E54DEF6E817F81888591
:104B700099850E94D62F80E011B812B81AB81BB8D8
:104B80008823D9F00E94702D4F8558899A0150E0F2
:104B900040E0CA01B9010E94D12F0E941B2EB0E053
:104BA000A0E0B801CD010E94D12F0E941B2E50E041
:104BB00040E0CA01B7010E94D12F3981343671F02B
:104BC00060E188EE93E00E94941F882339F08230E0
:104BD00009F0E8C044E64D8354E6598399819F5F0C
:104BE0009983963008F41ACFAD81AF5FAD83A730BB
:104BF00008F403CFBFE08B12D8C0C2016FE070E0B1
:104C00000E9411576093F50121E02D833FE093123C
:104C10000CC0C1016FE070E00E9411577093F40165
:104C20006093F3014D814F5F4D835A855F3009F4E6
:104C3000BEC080E06096E2E10C94BD57398131300E
:104C400041F48FE792E00E94272E85E892E00E94CF
:104C5000A82D60E081E00E94782980E00E94433125
:104C60008F87988B4F8558894639510518F4240E43
:104C7000351E939460E082E00E94782980E00E94D3
:104C800043318C018639910518F4280E391E93940E
:104C900061E082E00E94782980E00E9443317C013B
:104CA0008639910508F0C8CE280E391E9394C4CEDB
:104CB00080E00E94E42080E094E699835DCFA981A2
:104CC000A13021F48CE992E00E94A82D12B8B1E045
:104CD000B1B97BB87AB880E00E9408298F87988B99
:104CE00022E021B930E13BB93AB981E00E940829BC
:104CF0008C01AF84B888A80EB91E4B855C85A40EC4
:104D0000B51E71B86BB86AB882E00E9408297C01B0
:104D1000C5018E0D9F1D9C878B879A859D5F9A8705
:104D20008BCEA981A13021F488E992E00E94A82DC0
:104D30001BB8B1E0B2B9B1B97AB82091B7013091DE
:104D4000B8013F832E8380E00E9408294E815F8155
:104D5000481B590B588B4F8752E052B951B980E12B
:104D60008AB90091B7011091B80181E00E94082929
:104D7000081B190BAF84B888A00EB11ECA0CDB1C2F
:104D800072B871B86AB8E090B701F090B80182E0EB
:104D90000E940829E81AF90ACE0CDF1C9D859D5F48
:104DA0009D874ACE84E6898319CF1D822FCF8D85BA
:104DB0008F3009F03ECFE5E0F0E08B859C85BF01A8
:104DC0000E9411579B01C601BF010E9411578B0120
:104DD0008091B7019091B8016C01CC0CDD1CC80E1C
:104DE000D91EC901860F971FC81AD90AF12CE12CC8
:104DF000D90120EA39E041E050E00E949657A7012E
:104E000096010E943957DA01C9010596A11DB11D0D
:104E1000843C29E09207A105B10578F4BC01CD01DD
:104E20002AE030E040E050E00E9439573093F00132
:104E30002093EF013D813F5F3D83D80120EA39E0B7
:104E400041E050E00E949657A70196010E94395711
:104E5000DA01C9010596A11DB11D803F2AE0920724
:104E6000A105B10508F0E5CEBC01CD012AE030E096
:104E700040E050E00E9439573093F2012093F10155
:104E80003E85353009F0D5CE4D81433009F0D1CE85
:104E90000E941E2481E0CECEA7E0B0E0E2E5F7E27A
:104EA0000C94A15781E00E94E420882309F4B0C04B
:104EB000F12CE12C10E000E01F821E8221E02D8306
:104EC00038E0232E40E2342E50E8D52E6AE7462EF5
:104ED00065E0562E612C712C0E949D520E947D2E01
:104EE00084E50E946A538D81805D0E946A530E940E
:104EF000882E0E941B2ECC24C3943D81343009F4AB
:104F0000F3C050F4323009F488C0333009F4C0C023
:104F10003130F1F081E035C08D81853009F4EBC08E
:104F20008630C1F721E0C21204C080EA92E00E94FC
:104F3000A82D2BB82AB880E00E9411298E839F8368
:104F40003BB83AB881E00E9411298C01DBB8E6C079
:104F50008EE10E9494288EE10E9494285C0191E0E9
:104F6000C91204C088EA92E00E94A82D0E94702D08
:104F7000B0E0A0E026E54DEFB501CD010E94252F60
:104F800080E01AB81BB8882341F10E94702D20E000
:104F900040E08E819F81092E000CAA0BBB0BBC0147
:104FA000CD010E94FE2E0E941B2E20E040E0C80191
:104FB000012E000CAA0BBB0BBC01CD010E94FE2EE2
:104FC0000E941B2E20E040E0C7010F2C000CAA0B12
:104FD000BB0BBC01CD010E94FE2E94E6C91669F000
:104FE00060E188EE93E00E94941F882331F08230C4
:104FF00011F4A4E6AD8384E6C82EC394B5E0BC15D5
:1050000008F07BCF2D812F5F2D83273008F464CFEC
:1050100081E02796E2E10C94BD5791E0C91208C0E7
:1050200083E992E00E94272E85E892E00E94A82D55
:105030002091B7013091B801ACEBB2E00E948057EB
:10504000A30192010E945B5749015A01A4E0ABB948
:10505000B4E1BAB982E00E9411297C01E818F9088C
:1050600024E42AB981E00E9411298C010819190948
:1050700030E13BB980E58AB980E00E94112989833B
:105080009A83A981BA81A819B909BF83AE8342CF97
:10509000B1E0CB1208C08EE892E00E94272E85E88E
:1050A00092E00E94A82DA090B701B090B801B694EC
:1050B000A7942BB828E22AB982E00E9411297C012A
:1050C000EA18FB0838E83AB981E00E9411298C01FE
:1050D0000A191B093BB880EA8AB980E00E941129AD
:1050E000DC01AA19BB09D1CF80E00E94E42080E056
:1050F00094E6C92E46CFB1E0CB1204C084EA92E018
:105100000E94A82D1BB82AB880E00E9411298E8326
:105110009F833AB881E00E9411298C01DAB882E0BD
:105120000E9411297C01F6CEA5E0B0E0EAE9F8E2A0
:105130000C94B1578F7180648983898180937C003E
:10514000807C8D838091B4019D81891729F00E9414
:105150002155AD81A093B40180917A008064809341
:105160007A0090917A00892F807496FDFACF20E022
:1051700030E0A901E091B2018E1700F1BD81B03895
:1051800009F041C0A091B501B091B6010E949657B7
:10519000DC01CB012AE0B695A795979587952A95CE
:1051A000D1F72E2F30E050E040E0BC01CD010E944D
:1051B0003957C9012596E2E00C94CD5790917A00B9
:1051C000906490937A0090917A0096FDFCCF609164
:1051D000780070917900260F371F411D511D8430D2
:1051E00081F42115B4E03B0760F49D81903849F0CB
:1051F0009091B301913029F4A981AF73A068A9837C
:105200009CCF8F5FB7CFA091B701B091B801BECF4F
:10521000CF93C82F0E9418558C2F0E949428CF91AD
:105220000895CF93C82F0E9416558C2F0E94942862
:10523000CF910895B0E0A0E0E0E2F9E20C94AB5722
:10524000E62E042FCDEDD1E0888369834A83C82EF2
:10525000D12CC601875F9F4F0E9434588E83F12C5A
:10526000C701875F9F4F0E9434588F8310E0C801A9
:10527000875F9F4F0E9434588887C6018A5F9F4F7F
:105280000E9434588987C7018A5F9F4F0E94345813
:105290008A87C8018A5F9F4F0E9434588B87C60156
:1052A0008D5F9F4F0E9434588C87C7018D5F9F4F41
:1052B0000E9434588D87C8018D5F9F4F0E943458DB
:1052C0008E87C601805090400E9434588F87C70156
:1052D000805090400E943458888BC8018050904084
:1052E0000E943458898BCDB7DEB7E8E00C94C757DD
:1052F00043E0461B481B0E941A290895EDEDF1E09A
:105300004581648183810E941A290895EDEDF1E0C1
:105310008081838381818483828185830895CF9373
:10532000DF930E94782911B88091E3018BB99091A5
:10533000E401892B8AB98091EC010E940829EC01D3
:105340008091ED010E949428AC012091B701309129
:10535000B80136952795C9014E978C179D0760F4C3
:10536000225E3F4FC217D30738F48417950720F405
:1053700081E04217530708F080E01AB8DF91CF911F
:105380000895CF9361E080E00E948F29C82F62E0EA
:1053900080E00E948F29C80F62E081E00E948F297F
:1053A0008C0FCF9108950F931F93CF93DF93D82F36
:1053B000C62F11B812B81AB81BB80E94782980916C
:1053C000E90181B98091ED010E9494288C018091BE
:1053D000EA0181B98091EC010E949428081719070D
:1053E00020F46D2F8C2F0E9478298091E90181B9DA
:1053F0008091E4018AB9C2E38091ED010E94942872
:105400009C01203981E0380740F481B19091EA0194
:10541000892B81B92832310538F0C15029F084E652
:1054200090E00E945323E8CF11B81AB8DF91CF91D2
:105430001F910F910895A6E0B0E0E1E2FAE20C942A
:10544000A75711B812B81BB88CEF8AB980E00E9438
:1054500094289A83898381E00E9494289C838B837B
:1054600082E00E9494289E838D83912C02E018E2B2
:10547000FF24F394AA24A394B12C0F5F033009F402
:1054800000E0C02ED12C892D90E0002E02C0959511
:1054900087950A94E2F780FDF0CFC60180509040D6
:1054A0000E943458E82E0E9494289C01F601EE0FC9
:1054B000FF1F41E050E04C0F5D1FE40FF51F80819E
:1054C00091812817390770F431832083412F4F19B8
:1054D000550B443151051CF41B3E08F41C5EFF249F
:1054E000F39407C02A30310518F4183209F410E596
:1054F000F39423303105D0F5C5010C2C01C0880F81
:105500000A94EAF7982A87E0981651F11F15D0F50A
:1055100081E0809310018093110100931601C60170
:105520008D5F9F4F0E94345821B1982F9095922300
:1055300091B9C6018A5F9F4F0E943458182FC60147
:10554000875F9F4F0E9434589AB1182B10951923EA
:105550001AB98E2D0E9494289093180180931701F8
:105560001AB811B82696ECE00C94C3572032334099
:1055700050F681B0C6018D5F9F4F0E943458882A33
:1055800081B8C1CFA89582E390E00E94532375CFE4
:10559000CF93C82FC0959BB160FF11C0982B9BB9CA
:1055A0009AB1892B8AB963FF0CC00E941C558AB13D
:1055B0008C238AB98BB18C238BB9CF9108959C230E
:1055C000EECF0E941755F3CFB0E0A0E0EAEEFAE28A
:1055D0000C94AC579C01613009F447C0623009F467
:1055E0004DC090E080E06330D9F5ECE4F1E00EE1ED
:1055F00010E0C9E1D0E088EC90E02817390708F402
:1056000046C0A901481B590BCA01BE010E9411578F
:10561000DC2ED81A6017110611F008F0B8017727B0
:10562000660F771F8F01060F171FC8010E943C5895
:105630007C01C80102960E943C589C01E81AF90AB4
:10564000DE9CA001DF9C500D1124CE01969587951C
:10565000840F951FBE010E941157C901860F971F25
:10566000CDB7DEB7E7E00C94C857ECE8F1E007E00F
:1056700010E0C2E3D0E088EE93E0BFCFEEE9F1E0C6
:105680000CE210E0C9E1D0E08CE291E0B6CF90E00E
:1056900080E0BBCFABE0B0E0E0E5FBE20C94A157CB
:1056A0006B017C01142F2983283109F4FBC060F4BD
:1056B000263009F401C12C3009F403C1B12C8B2D23
:1056C0002B96E2E10C94BD5729812036B9F799E277
:1056D000892E90E0992EEAC0C701B601A30192017C
:1056E0000E94395769017A011F5F30EAC31636E814
:1056F000D30631E0E306F10478F740E1C41647E24F
:10570000D406E104F10408F4E1C0B601C7016D83D9
:105710007E838F8398872AE030E040E050E00E944B
:1057200039572901B901CA0119871F5F2D813E81AF
:105730004F815885203137424105510540F7312CC2
:105740001B861A86212CAA84BB84C4010E943C5863
:105750008A879B8781E0820D2A853B852415350544
:1057600070F432E0830E911C322C49814813B8C08A
:10577000AA84BB84212C88EE93E09B878A879501BD
:10578000A4E6B0E00E94805769837A838B839C8370
:10579000402E512C712C612CA02FB0E09B01AC014C
:1057A0000E94965728EE33E040E050E00E943957BF
:1057B00089819A81AB81BC81280F391F4A1F5B1FE9
:1057C0002C153D054E055F0508F48CC0212F0233D2
:1057D00040F0C5016AE070E00E9411575B01298525
:1057E0002E5FC501B0E0A0E08093D3019093D40177
:1057F000A093D501B093D6012093D70181E0830D0A
:105800008093BE01BB24B3942A853B85A4E6B0E017
:105810000E94805769837A838B839C83A3019201C2
:105820000E94E75628EE33E040E050E00E943957EE
:1058300089819A81AB81BC81821B930BA40BB50B30
:10584000C816D906EA06FB0608F439CFAA85BB8537
:10585000A83EB34031F419851E5F24E630E03B8753
:105860002A87023348F08A859B856AE070E00E94AF
:1058700011577B876A871F5F23944A855B85CA011E
:10588000B0E0A0E0B11030C08093D3019093D40178
:10589000A093D501B093D6011093D7012092BE01F9
:1058A000B3940DCF49EE842E40E0942E8AE0482E2A
:1058B000512C612C712C19CF31E3832E31E0932EC2
:1058C000F5CF29E1822E21E0922EF0CFAAE0B0E0C0
:1058D000A70196010E9496576B017C0111500DCFD4
:1058E000282E31CFB12C90CF8093D8019093D9013D
:1058F000A093DA01B093DB011093DC012092BF0189
:10590000CFCFCF93DF9390911001913009F4A6C0CF
:10591000A8950E941A291BB88091E4018AB9809148
:10592000E90181B982B960E18091E5010E94C82A4C
:105930008091ED010E940829EC018091E401909191
:10594000E501892B8AB98091ED010E9408299C010B
:105950008091E4018AB92C173D0720F425303105E8
:1059600008F4E901C13D23E0D20708F161E180912B
:10597000E5010E94C82A8091ED010E940829EC01EE
:105980008091E5018BB99091E401892B8AB98091CE
:10599000ED010E9408299C011BB88091E4018AB99D
:1059A0002C173D0720F42530310508F4E901C031FA
:1059B000D10508F056C080911201811143C0809139
:1059C000E4018AB91BB88091E90181B982B90E94CA
:1059D00018558091E4019091E501892B8AB9809155
:1059E000ED010E9408298F359D4020F0BE0182E024
:1059F0000E94513E80911201811124C08091EA01E0
:105A000081B912B88091E3019091E501892B8AB99F
:105A10008BB98091EC010E9408298034964060F493
:105A20000E944D42811108C080911001813221F005
:105A3000BE0181E00E94513E80911201811102C09D
:105A40000E943D4380911001882311F08A30F1F4C7
:105A50000E940A3211B812B81AB81BB8DF91CF9160
:105A6000089580911201811103C0CE010E94694006
:105A700080911201C13D93E0D90708F49CCF8111B8
:105A800002C00E94EC420E949A3BDCCF8F3111F79A
:105A90008091110184FFDECF0E949B3CDBCF80917F
:105AA00013018823E1F09091120190FD18C091FD3F
:105AB00004C0909110019E3190F480931001809168
:105AC00048018093BE01809149018093BF0180917C
:105AD0004A018093C00180911A01809319010895B1
